:020000040800F2
:10000000A8050020490100084B020008430200082F
:1000100047020008B501000889030008000000003D
:10002000000000000000000000000000770200084F
:100030004102000800000000750200087902000873
:100040006301000863010008630100086301000800
:1000500063010008630100086301000863010008F0
:10006000630100086301000863010008B90100088A
:1000700063010008630100086301000863010008D0
:1000800063010008630100086301000863010008C0
:1000900063010008630100086301000863010008B0
:1000A00063010008630100086301000863010008A0
:1000B00063010008FD0200086301000863010008F5
:1000C0006301000863010008630100086301000880
:1000D000630100085D030008630100086301000874
:1000E0006301000863010008630100086301000860
:1000F0006301000863010008630100086301000850
:10010000630100086301000863010008630100083F
:100110006301000863010008630100083D03000853
:10012000630100086301000863010008630100081F
:10013000DFF810D000F02CF80048004765110008E7
:10014000AFF30080A8050020064880470648004716
:10015000FEE7FEE7FEE7FEE7FEE7FEE7FEE7FEE777
:10016000FEE7FEE7810200083101000840EA0103D2
:100170009B0703D009E008C9121F08C0042AFAD25D
:1001800003E011F8013B00F8013B521EF9D2704721
:10019000064C074D06E0E06840F0010394E80700D4
:1001A00098471034AC42F6D3FFF7C6FF8827000803
:1001B000A827000800BFFEE710B5022200211B4857
:1001C00000F08EFE00282FD002220021174800F0F8
:1001D0007FFE0021154800F007FD0024002004E008
:1001E000134931F810100C44801C4028F8D31148F2
:1001F000006800EB54100F4908600F480068401C6D
:100200000D4908600024012004E0094931F810106C
:100210000C44801C4028F8D360090849086000217C
:10022000024800F0FAFC00BF10BD000000000240D0
:100230004400002004000020080000200C000020E2
:10024000704700BFFEE700BFFEE7704710B500280B
:1002500007DA0A07140E054A00F00F031B1FD454D7
:1002600003E00A07130E024A135410BD18ED00E014
:1002700000E400E07047704710B500F079FB10BD56
:1002800008B51B48006840F4700019490860194817
:10029000006840F00100174908600846406840F0D7
:1002A000800048600020009002E00098401C009010
:1002B00044F6206100988842F7D30E48406820F049
:1002C00003000C494860084600680B49084009498A
:1002D00008604FF41F0088600846006820F4802002
:1002E000086000204860C86201F096FC08BD00006C
:1002F00088ED00E000100240FFFFF6FE10B501217E
:100300000C4802F09FF898B101210A4802F097F8D2
:100310000848006800F0100028B107480068401E37
:100320000549086004E004480068401C0249086070
:1003300010BD0000000400401800002010B501218D
:10034000054802F07FF828B10121034802F077F850
:1003500000F080FB10BD00000014004008B5084903
:10036000084802F06BF948B1064802F0E7F8C0B25D
:1003700000900121684601F011F800BF08BD00009F
:10038000050305000038014000BFFEE710B5044634
:100390002146054802F0D7F800BF0721024802F0C5
:1003A00024F90028F9D010BD0038014070B504468A
:1003B0000D46002605E014F8010BFFF7E7FF701C5F
:1003C00086B2AE42F7DB70BD0FB4054B10B503A982
:1003D000044A029800F017F810BC5DF814FB000006
:1003E0007D0F00084000002002E008C8121F08C16D
:1003F000002AFAD170477047002001E001C1121FA6
:10040000002AFBD170472DE9F84F9946924688465D
:100410000546002706E025280AD051464A4690475F
:100420006D1C7F1C28780028F5D13846BDE8F88F70
:10043000002315F8011F18462E2915D115F8011FA4
:1004400004232A290DD06FF02F022978A1F130045E
:10045000092C09D800EB800002EB400008446D1C19
:10046000F3E758F8040B6D1C2A78002ADDD0632AC4
:1004700007D0732A0FD0104651464A4690477F1C3A
:100480002AE018F8042B8DF8002000218DF80110C7
:100490006E46012103E058F8046B4FF0FF315A0714
:1004A0004FF0000401D409E0641C84420BDA8C4252
:1004B000FADB325D002AF7D105E0641C8C42FCDBDC
:1004C000305D0028F9D1274404E016F8010B5146AD
:1004D0004A469047641EF8D26D1CA3E7816841F03C
:1004E0000801816000BF816801F008010029FAD18C
:1004F000816841F00401816000BF816801F004015E
:100500000029FAD1704730B5012902D002291AD149
:100510000CE0C36A23F47003C362C36A541E4FF431
:10052000700505EA04542343C3620DE0836B23F492
:1005300040138363836B541E4FF4401505EA045443
:100540002343836300E000BF00BF30BD10B500202F
:1005500000F08EF8012202211C4800F0FCF8012274
:1005600011021A4800F0F7F80021184800F030F89E
:10057000022201211548FFF7C6FF072304220021AC
:10058000124800F083F80723052201210F4800F0EC
:100590007DF84FF4602201210C4800F051F801224F
:1005A00011460A4800F02DF8084800F01CF80748EA
:1005B00000F01EF8012000F0D1F90448FFF78EFF8B
:1005C0000121024800F0B8F810BD000000240140ED
:1005D00021B1826842F40062826003E0826822F402
:1005E000006282607047816841F480718160704769
:1005F000816801F0010119B9816841F00101816050
:10060000704772B101F001031BB1836843F480139A
:10061000836001F0020393B1836843F40043836075
:100620000DE001F001031BB1836823F480138360A4
:1006300001F002031BB1836823F400438360704719
:10064000012902D0022910D107E0836823F4602336
:10065000836083681343836008E0836823F4E04386
:10066000836083681343836000E000BF00BF70476E
:100670000549096821F47021034A1160114609688F
:10068000014311607047000004240140F0B51D468D
:1006900006290CD2436B01EB81071F26BE40B343F2
:1006A00001EB810602FA06F63343436322E00C298C
:1006B0000ED2036B8E1F06EB86071F26BE40B34388
:1006C0008E1F06EB860602FA06F63343036311E03B
:1006D00010290FD2C36AA1F10C0606EB86071F266C
:1006E000BE40B343A1F10C0606EB860602FA06F6FD
:1006F0003343C3620A2A0CD2046902EB420707267D
:10070000BE40B44302EB420605FA06F634430461E8
:1007100011E0122A0FD2C468A2F10A0606EB4607BE
:100720000726BE40B443A2F10A0606EB460605FAC8
:1007300006F63443C460F0BD01F001021AB18268CC
:1007400042F48002826001F002021AB1826842F42F
:10075000001282607047AAB101F480731BB1436834
:1007600043F48073436001F480631BB1436843F436
:100770008063436001F00203CBB1836843F002035E
:10078000836014E001F480731BB1436823F4807329
:10079000436001F480631BB1436823F480634360CA
:1007A00001F002031BB1836823F0020383607047EA
:1007B00010B540F2026000F0EDFF40F20E6000F074
:1007C000E9FF4FF4007303221821164800F06CFC77
:1007D0004FF4806303220421124800F065FC1248A4
:1007E00001F0B6FE4FF4E1310F4801F05FFE042145
:1007F0000D4801F03FFF08210B4801F043FF0B4972
:10080000094801F00EFF40F20531074801F0FCFEF7
:1008100000221146252000F055FD034801F0E0FEBE
:1008200010BD00000008014000380140050305002C
:1008300000201D4909681D4A1268B1FBF2F108B297
:1008400000211A4A1160184A116019490988B1F546
:10085000967F06DA1749086015490988491C144A29
:10086000118014490968884204DB12490988411A39
:1008700008B200E0002000EE100AB8EEC00A9FEDBA
:100880000E1AC0EE011A9FED0D0A61EE800AB2EE5B
:10089000001A80EE810A9FED0A1AC0EE011A9FED40
:1008A000090A21EE800A7047040000200800002099
:1008B0001000002014000020000080453333534016
:1008C0000AD7A33C0000FA440148008870470000A2
:1008D0001000002010B500F04BFF00F093FB00F07B
:1008E000CFF9FFF733FE10BD10B501F00DFC10BDC0
:1008F00010B5044801F036FC03490968C1EB014119
:10090000084410BD000400401800002010B500F09D
:10091000A1FB01F0A5FB10BD10B501F081F9FFF7B7
:1009200047FFFFF7D7FF00F005F8FFF7EFFFFFF7EE
:10093000DBFF10BD10B500F075FB01F02EFB10BD04
:1009400030B50346184603E00C780444E0B2491C75
:10095000141EA2F10105EAB2F6D130BD03490860C8
:1009600000BF024909680029FBD170470000002040
:100970000448006820B103480068401E014908602F
:10098000704700000000002010B500F055F810BDC1
:1009900010B50020084908700121084800F02EFB1E
:1009A000002211464FF0804001F0B7FA00220121E9
:1009B000880701F0B2FA10BD2000002000100140AD
:1009C00010B50120034908700121034800F018FB0D
:1009D00010BD0000200000200010014010B50024D0
:1009E000FFF786FF10490860084600680F4909684C
:1009F000401A00EE100AB8EEC00A9FED0D1AC0EEC4
:100A0000010AB3EE0E1A80EE810ADFED0A0A80EECB
:100A1000201ABDEEC10A10EE104A034800680349CF
:100A20000860204610BD00002C000020300000208F
:100A3000000080423EC32E3910B500F023FBFFF7C3
:100A4000A7FF002000F0B0F8002000F089F8FFF7C1
:100A5000B7FF10BD00B52DED028B81B0394800788D
:100A600008B9012000E000203649087008460078E7
:100A700018B901B0BDEC028B00BDFFF7D9FE3248BA
:100A800080ED000AFFF7AAFF30490860304800688F
:100A9000401C2F490860FFF717FFB0F5967F32DB47
:100AA0002C48007801282ED1284890ED000AB8EE95
:100AB000C00A294801F018FEB0EE408AB5EEC08A9F
:100AC000F1EE10FA03DD012000F04AF806E0002004
:100AD00000F046F8B1EE480AB0EE408A9FED1F0ADA
:100AE000B4EEC08AF1EE10FA02DD9FED1C0A01E0BF
:100AF000B0EE480AB0EE408ABCEEC80A10EE101AFA
:100B000088B200F051F8124800680521B0FBF1F2FC
:100B100001FB1200A0B90C4890ED000ABDEEC00A1E
:100B20008DED000A09480068009001236A46022101
:100B3000084600F0B7FFBDEEE80A8DED000A00BFE1
:100B400000BF96E734000020280000202400002089
:100B50003800002020000020E800002000E0F645DA
:100B600010B504460E480470007860B90D4802883C
:100B700000214FF0804001F0D0F9002201218807C8
:100B800001F0CBF90BE0002211464FF0804001F05C
:100B9000C4F9044802880121880701F0BEF910BD9C
:100BA0001C0000201E00002010B5044641F6DC6049
:100BB000844200DD04460A4804800A48007838B9B7
:100BC0000748028800214FF0804001F0A6F905E0B7
:100BD000034802880121880701F09FF910BD000039
:100BE0001E0000201C00002070B505460C46214662
:100BF000284600F0B7F908B900BFFEE704EB84000F
:100C0000810005F10800405820F0010104EB840048
:100C1000820005F10800815070BD70B505460C4694
:100C20002146284600F09EF908B900BFFEE704EB14
:100C30008400810005F10800405840F0010104EBF8
:100C40008400820005F10800815070BD70B5054632
:100C50000C462146284600F085F908B900BFFEE79A
:100C600004EB8400810005F10800405840F02001A9
:100C700004EB8400820005F10800815070BD000083
:100C800000B587B000211B4800F03AF81A480090E0
:100C900000208DF818001948029001208DF81900E5
:100CA000000201908000039000208DF81A0040207F
:100CB0000490C00105906A4600210E4800F058F8E3
:100CC000022200210B4800F003F90222002109480A
:100CD00000F0E5F8002211460B2000F0F3FA0021A5
:100CE0000448FFF7B3FF00210248FFF796FF07B063
:100CF00000BD0000000002404C24014044000020E0
:100D000070B504460D462946204600F02BF908B977
:100D100000BFFEE705EB8500810004F108004058A4
:100D200020F0010105EB8500820004F108008150EC
:100D3000002105EB8500820004F10800815005EBDD
:100D40008500820004F10C00815005EB85008200D3
:100D500004F11000815005EB8500820004F11400BD
:100D600081506068AA000F2191400843606070BD07
:100D70002DE9F04104460D4616462946204600F06E
:100D8000F1F808B900BFFEE705EB8500820004F129
:100D900010003168815005EB8500820004F11400D9
:100DA000B1688150308A81B205EB8500820004F180
:100DB0000C00815005EB8500810004F108004758C4
:100DC00027F47C57F168706808437169084307434A
:100DD00005EB8500810004F108004750307E0128B2
:100DE0000ED105EB8500810004F10800405840F069
:100DF000400105EB8500820004F1080081500DE000
:100E000005EB8500810004F10800405820F0400106
:100E100005EB8500820004F108008150707E0128F6
:100E20000ED105EB8500810004F10800405840F028
:100E3000800105EB8500820004F1080081500DE07F
:100E400005EB8500810004F10800405820F0800186
:100E500005EB8500820004F108008150B07E70B976
:100E600005EB8500810004F10800405820F01001D6
:100E700005EB8500820004F1080081500DE005EBD0
:100E80008500810004F10800405840F0100105EB96
:100E90008500820004F108008150BDE8F08170B542
:100EA00004460D4616462946204600F05BF808B970
:100EB00000BFFEE705EB8500810004F10800405803
:100EC000304305EB85018A0004F10801885070BDAC
:100ED00010B543688C0002FA04F42343436010BD4C
:100EE00070B5034600BF00BF022A04D0042A11D007
:100EF000082A2DD11DE018688E0002FA06F600EAD5
:100F0000060501EB8100860003F10800805900F01E
:100F100002041FE018688E0002FA06F600EA0605D1
:100F200001EB8100860003F10800805900F0040401
:100F300010E018688E0002FA06F600EA060501EBDA
:100F40008100860003F10800805900F0080401E0E8
:100F500000BFFEE700BF15B10CB1012070BD00203D
:100F6000FCE7000002460120034B9A4202D104290B
:100F700000DD0020704700000004024070B5044608
:100F80000D46E1B2054801F0DEFA00BF0721034833
:100F900001F02BFB0028F9D0204670BD003801403D
:100FA00010B503460C46A018411EC81701EB50604F
:100FB000C011A1EBC010185C10BD0246481D00F026
:100FC0007F00135C881D00F07F00105C43EA002363
:100FD000C81D00F07F00105C43EA004301F10800E7
:100FE00000F07F00105C43EA006080B27047024668
:100FF00001F1090000F07F00105C7047416170470B
:101000000161704710B5102301220021044800F04F
:101010004BF8202301220021014800F045F810BDC3
:101020000008014010B540F2026000F0B3FB4FF43D
:10103000C06000F0AFFB012303221821044800F038
:1010400033F8022303221821014800F02DF810BDC7
:101050000008014010B540F2026000F09BFB4FF425
:10106000C06000F097FB402303224821044800F0B1
:101070001BF8802303224821014800F015F810BD19
:101080000008014010B540F2046000F083FB01232A
:1010900003221021034800F007F801210148FFF75F
:1010A000ADFF10BD00100140F0B504461646002506
:1010B000002201F00F0501F0100747B1042E05D101
:1010C00045F00305E76B1F43E76300E0354300206D
:1010D0001EE0012787401F40C7B122684FEA800CFD
:1010E0000F2707FA0CF7BA43870005FA07F73A43C8
:1010F000282904D1012787401F40676105E048295E
:1011000003D1012787401F4027612260471CB8B2E6
:101110000828DED3082022E0012787401F40E7B1DE
:101120006268A0F108074FEA870C0F2707FA0CF74F
:10113000BA43A0F10807BF0005FA07F73A43282988
:1011400004D1012787401F40676105E0482903D18A
:10115000012787401F4027616260471CB8B21028F2
:10116000DAD3F0BD92B0FFF7D7FBFFF70DFC00F02C
:101170000FFA9FED400A8DED090A9FED3E0A8DEDB5
:101180000D0AB0EE0C0A8DED0E0A9FED3A0A8DEDB8
:101190000F0A18220CA96846FEF7E8FF364809A98D
:1011A0000EC901F077FA00200690079008903248A7
:1011B00090ED040A8DED060A90ED050A8DED070A03
:1011C00090ED060A8DED080A032306AA01211846B0
:1011D00000F068FC9FED270A8DED090AB1EE040AC4
:1011E0008DED0D0AB0EE000A8DED0E0A9FED210A7D
:1011F0008DED0F0A18220CA96846FEF7B7FF1F48AD
:1012000009A90EC901F046FA1C4890ED040A8DEDBB
:10121000060A90ED050A8DED070A90ED060A8DEDA0
:10122000080A032306AA0221184600F03BFC00BF6F
:1012300013A0FFF7C9F815A217A11AA0FFF7C4F869
:101240001FA0FFF7C1F800BF00231A4601210520A7
:1012500000F028FC0123084A1946184600F022FC39
:101260000123064A0221184600F01CFC01E000F0B0
:10127000C1FAFCE700000000C4000020E8000020E4
:101280005B492F4D41494E5D2000000031303A3519
:10129000393A3535000000004D617220203320328C
:1012A000303233004669726D7761726520636F6D0D
:1012B00070696C652074696D653A2573202573002B
:1012C0000A0000002DE9F04103460D4616460024B1
:1012D0000027A0462A48006800F4E060B0F5E06FFF
:1012E00003D100BF4FF0040830E02548006800F447
:1012F000E060B0F5C06F03D101274FF0030825E08F
:101300001F48006800F4E060B0F5A06F02D102272A
:10131000B8461BE01A48006800F4E060B0F5806F42
:1013200003D103274FF0010810E01548006800F4CE
:10133000E060B0F5407F03D104274FF0000805E0DE
:101340004FF4A06000F020F80227B846C7F104006F
:1013500005FA00F4C8F104010F20C84030400443EE
:1013600024010848C45403F01F010120884059118A
:10137000890001F1E021C1F80001BDE8F081000021
:101380000CED00E000E400E002490143024A116074
:10139000704700000000FA050CED00E038B5054686
:1013A0000C460A490094CA882B460868802100F040
:1013B00056FB0649C9880819C11700EB5161C911CC
:1013C000A0EBC111014AD18038BD00000C01002002
:1013D0002DE9F04706460F464FF0FF0A00244FF074
:1013E000FF38A1466949CB888A880889802100F0A6
:1013F00025FB84B2092C02DA5046BDE8F087634829
:10140000408940BB61498A8823460868802100F0F2
:10141000DBFA0FFA80F8B8F1000F0EDB01205B4910
:101420004881A1F80480CB888A880889802100F04F
:1014300005FB09280FDA5046DFE754498988214423
:10144000C81EC11700EB5161C911A0EBC1114F4A71
:1014500091805046D1E74D48008960B94B4A918848
:101460001068FFF7AAFD4949088108460089A04293
:1014700001DD5046C1E74548008944498988084450
:10148000401E80281CDD41480068404B9B88C118E5
:101490003E488088C0F18000C2B24846FFF750FA4B
:1014A00081463A48007A401E384B1B7918448038F0
:1014B000C2B2364801684846FFF742FA81460CE05E
:1014C00032480068314B9B88C1183048007A401E72
:1014D000C2B24846FFF734FA81462C4B1A899988E4
:1014E0001868FFF75DFD48453ED1284880882749A8
:1014F00009890844802816DD24488088C0F18000CE
:1015000085B222480068214A928881182A463046CE
:10151000FEF72CFE1D4B1B895A1B1C4B70191968BA
:10152000FEF724FE09E019480068184B9B88C11893
:10153000164802893046FEF719FE144800893880A3
:10154000124A91881068FFF752FD82460F49898838
:101550000E4A12898818C11700EB5161C911A0EB1E
:10156000C1110A4A91800AE008498988481CC117BC
:1015700000EB5161C911A0EBC111044A9180002018
:10158000024908814881504637E700000C010020DD
:1015900004480021016041608160034801490860FE
:1015A000002070470C01002018010020184B5968DA
:1015B000184B1940164BDA6A22F000520C2820D240
:1015C000DFE800F0060708091F0C1F0D1516171895
:1015D00000BF00BF00BF41EA803113E000BF20F030
:1015E00004004FF0805343EA803319430AE000BF00
:1015F00000BF00BF20F00C0041EA803142F00052F1
:1016000000E000BF00BF024B5960DA627047000083
:1016100000100240FF3FFFEF2DE9F04F8CB007466E
:1016200000200A904AA090E8004CC068CDE905BEB1
:10163000CDF810A007900FF21C1ADAE9000ACDE9E4
:10164000020A0FF2101ADAE9000ACDE9000A44484A
:101650004068C0F381000B900B9820B1012804D0A2
:1016600002283FD103E03F4A3EE03E4A3CE03C488E
:10167000406800F4803CBCF5803F12D13848C06A15
:1016800000F08048B8F1000F01D1364B00E0364B36
:101690003348406800F40039B9F5003F02D15B08D7
:1016A00000E0324B2E484068C0F383412C4840682C
:1016B00000F0006008B141F010012948406800F0D6
:1016C000804008B141F020010F2901D2891C06E0B9
:1016D0000F2903D33E2901D8491C00E03F2103FB19
:1016E00001F201E01F4A00BF00BF1D484068C0F37F
:1016F000031504A8465D22FA06F419484068C0F3B1
:10170000022502A8465D24FA06F0099014484068B4
:10171000C0F3C2251DF8056024FA06F0089037B121
:10172000012F06D0022F06D0032F0AD106E00A921D
:1017300008E00A9406E009980A9003E008980A90E5
:1017400000E000BF00BF0A980CB0BDE8F08F0000B9
:101750000000000000000000010203040607080961
:101760000010024000127A00006CDC0200093D000B
:1017700010B540F2026000F00DF840F2096000F090
:1017800009F84FF4A06000F005F80120FFF70EFF04
:1017900010BD0000064A02EB9011096800F01F031B
:1017A00001229A401143024B03EB901211607047E3
:1017B00000100240064A02EB9011096800F01F0376
:1017C00001229A409143024B03EB90121160704743
:1017D00000100240064A02EB9011096800F01F0356
:1017E00001229A401143024B03EB901211607047A3
:1017F00000100240F0B52DED048BA5B00020049040
:10180000FF27D7E004A905A8FFF7E2FD0746132F3D
:1018100072D006DC102F10D0112F6ED0122F6DD188
:10182000ACE0142F6BD0152F6AD0FF2FF7D14FF0FB
:10183000FF3025B0BDEC048BF0BD05A8407B4FF018
:101840007F4101EA006005A9097B4FF47F0202EAAB
:10185000014108439DF81F10121202EA01210843BA
:101860009DF81E1040EA010405A8407C110401EA1D
:10187000006005A9097C120202EA0141084305A99A
:10188000C97B121202EA0121084305A9897B40EABB
:10189000010505A8407D110401EA006005A9097D44
:1018A000120202EA0141084305A9C97C121202EAA8
:1018B0000121084305A9897C40EA01069DF818002A
:1018C0008DF8080000EE104AB0EE408A00EE105A83
:1018D000F0EE408A00EE106AB0EE409A9DF80800E3
:1018E00001280ED1B0EE491AF0EE680AB0EE480AAF
:1018F000314800F03FFF11E043E010E056E043E0E4
:1019000053E09DF80800022808D1B0EE491AF0EE25
:10191000680AB0EE480A294800F02CFF49E005A803
:10192000407B4FF07F4101EA006005A9097B4FF43D
:101930007F0202EA014108439DF81F10121202EAD9
:10194000012108439DF81E10084308EE100A9DF877
:1019500018008DF808009DF80800012804D1B8EEA1
:10196000C80A154800F00DFF9DF80800022804D1B0
:10197000B8EEC80A114800F004FF1AE0FFF720F89B
:1019800017E0FFF705F814E000BFBFF34F8F0C48D6
:10199000006800F4E0600B490843001D0849086036
:1019A000BFF34F8F00BF00BFFEE702E04FF0FF30F4
:1019B0003FE700BF26E70000C4000020E800002049
:1019C0000CED00E00000FA05F0B505460C460021DC
:1019D00000BF2BE0501890FBF4F604FB16002E5CC1
:1019E0005018401C90FBF4F704FB1700285C46EAF3
:1019F00000265018801C90FBF4F704FB1700285CAD
:101A000046EA00465018C01C90FBF4F704FB170090
:101A1000285C46EA0060084EB04205D1501890FBA1
:101A2000F4F604FB1600F0BD481C81B2D81E8842B3
:101A3000D0DC4FF0FF30F6E7535A485930B5044632
:101A400000259A4202DC981A85B202E0881A1844EE
:101A500085B2AC4201DD002030BD2846FCE72DE90F
:101A6000F04705460E4614461F46DDF8208004EB7D
:101A70000800B0420FDD301B1FFA80F928194A46D2
:101A80003946FEF773FBA8EB090207EB090128466C
:101A9000FEF76CFB04E0281942463946FEF766FB68
:101AA000BDE8F087F8B506460F4615461C460020EF
:101AB0000090A006040E11481149086004F10B00C3
:101AC000C1F805000846077146720A220020FEF799
:101AD00037FF0090224629469DF80000FEF730FFB0
:101AE00000900A210648FEF761FC21462846FEF7D1
:101AF0005DFC01216846FEF759FCF8BD535A485970
:101B000098010020002000213F4A126842F48032F0
:101B10003D4B1A6000BF401C3B4A126802F4003182
:101B200019B94FF6FF729042F5D1374A126802F4A4
:101B300000320AB900BFFEE7334AD26942F0805250
:101B4000314BDA61314A126842F440422F4B1A603D
:101B50002D4A52682C4B5A601A4652685A601A46EF
:101B6000526842F480625A601A46526822F4403247
:101B70005A601A46526842F440325A601A46526815
:101B8000234B1A40204B5A601A465268214B1A4385
:101B90001D4B5A601A46126842F080721A6000BFEC
:101BA000194A126802F00072002AF9D0174A126826
:101BB00042F48032154B1A6000BF144A526802F496
:101BC0008032002AF9D0114A126842F400320F4BD9
:101BD0001A6000BF0D4A526802F40032002AF9D0A0
:101BE000094A526822F00302074B5A601A465268AB
:101BF00042F002025A6000BF034A526802F0080233
:101C0000002AF9D070470000001002400070004028
:101C1000FFFFC3B70000340810B5FFF773FF10BD16
:101C200010B5124800684FF47A71B0FBF1F4601EF1
:101C3000B0F1807F01D301200FE0601E4FF0E02162
:101C400048610F214FF0FF30FEF700FB00204FF0FE
:101C5000E021886107200861002008B100BFFEE78D
:101C60000021481EFEF7F2FA10BD00003C000020E3
:101C7000016841F080010160704731B101290CD049
:101C8000022913D0032922D118E0836923F00C0321
:101C900083618369134383611AE0836923F440639A
:101CA0008361836943EA0223836111E0C36923F0FE
:101CB0000C03C361C3691343C36109E0C36923F41F
:101CC0004063C361C36943EA0223C36100E000BF0C
:101CD00000BF704710B531B101293FD002297DD036
:101CE00003297CD1BFE0036A23F001030362836907
:101CF00023F003038361036A148823430362036AA6
:101D000023F002030362036A9488234303626A4B4D
:101D1000984202D0694B98421FD1036A23F0040312
:101D20000362036A548823430362036A23F00803AF
:101D30000362036AD48823430362436823F48073F5
:101D400043604368148923434360436823F400736A
:101D500043604368548923434360ABE0036A23F044
:101D600010030362836923F440738361036A148858
:101D700043EA04130362036A23F020030362036A45
:101D8000948843EA041303624B4B984202D04B4BB6
:101D9000984226D1036A23F040030362036A548801
:101DA00043EA04130362036A23F080030362036AB5
:101DB000D48843EA04130362436823F480634360D6
:101DC0004368148943EA84034360436823F400634F
:101DD00043604368548943EA840301E002E068E019
:101DE000436067E0036A23F480730362C36923F0EE
:101DF0000303C361036A148843EA04230362036A8A
:101E000023F400730362036A948843EA04230362A1
:101E1000294B984202D0294B984223D1036A23F4DC
:101E200080630362036A548843EA04230362036AFB
:101E300023F400630362036AD48843EA0423036241
:101E4000436823F4805343604368148943EA0413CE
:101E50004360436823F4005343604368548943EA72
:101E60000413436026E0036A23F480530362C369CA
:101E700023F44073C361036A148843EA04330362A2
:101E8000036A23F400530362036A948843EA043329
:101E90000362094B984202D0084B984208D143682C
:101EA00023F4804343604368148943EA8413436006
:101EB00000E000BF00BF10BD002C01400034014015
:101EC00031B101290CD0022913D0032922D118E005
:101ED000836923F0700383618369134383611AE08C
:101EE000836923F4E0438361836943EA02238361C6
:101EF00011E0C36923F07003C361C3691343C36175
:101F000009E0C36923F4E043C361C36943EA0223E0
:101F1000C36100E000BF00BF704731B1012906D0A6
:101F2000022906D0032908D105E0426306E0826356
:101F300004E0C26302E0026400E000BF00BF70473B
:101F400031B101290CD0022913D0032922D118E084
:101F5000836923F0080383618369134383611AE073
:101F6000836923F400638361836943EA0223836105
:101F700011E0C36923F00803C361C3691343C3615C
:101F800009E0C36923F40063C361C36943EA022320
:101F9000C36100E000BF00BF704700B587B04FF4D9
:101FA000E060FFF7F7FB4FF0804000F0DFF8002023
:101FB000ADF80000ADF80200ADF8040041F63F7046
:101FC00002900020ADF806008DF80C0069464FF035
:101FD000804000F041F90120ADF810000020ADF87C
:101FE0001200ADF81400ADF81600ADF81800ADF809
:101FF0001A0004AA00214FF08040FFF76BFE04AAEC
:1020000001218807FFF766FE002211464FF080404D
:10201000FFF783FF602200214FF08040FFF750FF61
:10202000002211464FF08040FFF78AFF0022012175
:102030008807FFF772FF602201218807FFF740FF42
:10204000002201218807FFF77BFF4FF08040FFF758
:102050000FFE4FF0804000F0F7F807B000BD000021
:1020600000B587B040F20170FFF794FB254800F0FF
:102070007DF80020ADF80C00ADF80E00ADF81000B2
:102080004FF6FF7005900020ADF812008DF8180093
:1020900003A91C4800F0E0F80520ADF80A00002074
:1020A000ADF804000120ADF806000020ADF80800EE
:1020B00001AA0021134800F01BF901AA01211148CF
:1020C00000F016F900231A4603210E4800F0C6F965
:1020D00003210C4800F0E2F901210A4800F0B9F8A8
:1020E0000121084800F0A7F9012211461D20FFF741
:1020F000E9F80448FFF7BCFD024800F0A5F807B076
:1021000000BD0000000400401FB540F20570FFF75D
:1021100041FB134800F02AF842F6DF60ADF80000FA
:102120000020ADF80200ADF804003120029000203C
:10213000ADF8060069460A4800F08EF80122002139
:102140003720FFF7BFF80121054800F074F901219D
:10215000034800F074F9024800F076F81FBD000053
:102160000014004001460020486A704710B504463C
:102170003349601A8C4244D00CDCB4F1804F1CD03F
:102180003048204410B3B0F5806F28D0B0F5006F10
:1021900052D12DE0B0F5806F3CD0B0F58E3F03D02A
:1021A000B0F5923F48D13EE040F20B30FFF712FB12
:1021B00040F20B30FFF7FEFA3FE04FF48060FFF78C
:1021C00009FB4FF48060FFF7F5FA36E040F201407A
:1021D000FFF700FB40F20140FFF7ECFA2DE040F280
:1021E0000240FFF7F7FA40F20240FFF7E3FA24E07B
:1021F00040F20340FFF7EEFA40F20340FFF7DAFA4D
:102200001BE040F20440FFF7E5FA40F20440FFF71C
:10221000D1FA12E040F20540FFF7DCFA40F2054047
:10222000FFF7C8FA09E040F20D30FFF7D3FA40F2A9
:102230000D30FFF7BFFA00E000BF00BF10BD000087
:102240000010004000FCFFBF016841F00101016087
:102250007047CA43026170470A8882621D4A9042F1
:102260000ED0B0F1804F0BD01B4A904208D01B4AD1
:10227000904205D01A4A904202D01A4A90420BD19D
:10228000026822F07002026002684B881A43026002
:1022900002688B881A4302608A68C262124A9042BE
:1022A0000AD0124A904207D0026822F440720260BB
:1022B0000268CB881A430260064A904202D0094A5B
:1022C000904201D10A7B0263426942F001024261FD
:1022D00070470000002C014000040040000800404E
:1022E000000C004000340140001000400014004089
:1022F00070B504460E46154636B1012E26D0022E84
:1023000048D0032E7DD168E0206A20F001002062D1
:10231000206A20F00A002062206A2988084320628F
:10232000A06920F00300A061A06969880843A0614A
:10233000A06920F0F000A061A069E98840EA0110DE
:10234000A061206A40F0010020626DE0206A20F068
:1023500010002062206A20F0A0002062206A2988F4
:1023600040EA01102062A06920F44070A061A069D9
:10237000698840EA0120A061A06920F47040A06152
:10238000A069E98840EA0130A061206A40F01000AD
:10239000206249E0206A20F480702062206A20F4E4
:1023A00020602062206A298840EA01202062E069DA
:1023B00020F00300E061E06969880843E061E069BA
:1023C00020F0F000E061E069E98840EA0110E06196
:1023D000206A40F48070206226E0206A20F4805059
:1023E0002062206A20F400502062206A298840EA96
:1023F00001302062E06920F44070E061E0696988A2
:1024000000E010E040EA0120E061E06920F4704063
:10241000E061E069E98840EA0130E061206A40F467
:102420008050206200E000BF00BFAA8831462046ED
:10243000FFF723FC70BDC2680A43C2607047CA43FD
:10244000026170470246D06800EA01031069084043
:1024500010B10BB1012070470020FCE730B5846853
:1024600024F00704846084680C438460846940F22B
:102470000335AC438461846940F201152C438461C7
:10248000046A24F00A040462046A24F0A0040462CA
:10249000046A42EA03152C43046230BD826822F0CC
:1024A0000702826082680A43826070472DE9F04724
:1024B00004460D460027B846B94600261D49601A55
:1024C0008C421CD006DC1C48204470B1B0F5806FF3
:1024D0001FD10FE0B0F5806F16D0B0F56C4F18D15A
:1024E0000320FFF799F8074614E00220FFF794F85D
:1024F00007460FE00220FFF78FF807460AE00220A8
:10250000FFF78AF8074605E00220FFF785F807463F
:1025100000E000BF00BF07EB5500B0FBF5F64FF63B
:10252000F07006EA000806F00F0948EA0900A0600A
:10253000BDE8F087004C004000BCFFBF0146486882
:10254000C0F308007047C1F3080242607047000002
:1025500010B504462049601A8C4228D006DC1F487A
:10256000204490B1B0F5806F33D117E0B0F5806FA3
:1025700026D0B0F56C4F2CD140F20E30FFF72AF97F
:1025800040F20E30FFF716F924E040F21140FFF759
:1025900021F940F21140FFF70DF91BE040F2124023
:1025A000FFF718F940F21240FFF704F912E040F289
:1025B0001340FFF70FF940F21340FFF7FBF809E073
:1025C00040F21440FFF706F940F21440FFF7F2F82A
:1025D00000E000BF00BF10BD004C004000BCFFBFCA
:1025E000C16841F40051C160704710B5024602EB6A
:1025F0009110006801F01F040123A340184008B1A6
:10260000012010BD0020FCE710B500EB911212680C
:1026100001F01F040123A3401A4300EB91131A6039
:1026200010BD10B500EB91521268C1F304440123B0
:10263000A3409A4300EB91531A6010BD70B5024657
:1026400000230024C1F38910105801F01F06012552
:10265000B54000EA050302EB91500068C1F304465F
:102660000125B54000EA050414B10BB1012070BD8D
:102670000020FCE70A460021C16821F00401114353
:10268000C16070470A460021C16821F0080111436A
:10269000C16070470FB49DED010A80ED000A9DED09
:1026A000050A80ED040A9DED060A80ED050A9DED00
:1026B000070A80ED060A9FED0B0A80ED010A9FEDE7
:1026C000090A80ED020A9FED070A80ED030A9FEDDB
:1026D000050A80ED070A9FED030A80ED080A04B0A1
:1026E0007047000000000000F0EE400AC0ED010A53
:1026F00090ED000A90ED011A30EE410A80ED020AD9
:1027000090ED070A90ED021A30EE010A80ED070AFB
:1027100090ED070A9FED161AB4EEC10AF1EE10FA19
:1027200002DD9FED130A01E090ED070A80ED070A34
:1027300090ED040A90ED021A20EE010A90ED051AC0
:10274000D0ED071A01EE210A90ED021AD0ED031A1E
:1027500031EE611AD0ED061A01EE810A80ED080A09
:1027600090ED020A80ED030A90ED080A7047000020
:1027700000409C4580ED040AC0ED050A80ED061A74
:10278000704780ED000A7047A8270008000000206D
:1027900044000000E8030008EC2700084400002083
:1027A00064050000F80300080000000000000000BD
:1027B0000000000000000000000000000000000019
:1027C0000000000000000000000000000000000009
:1027D00000000000000000000000000000000000F9
:0C27E00000000000000E270700000000B1
:0400000508000131BD
:00000001FF
