:020000040800F2
:1000000010040020A10100081102000809020008E4
:100010000D020008E9010008350200080000000098
:1000200000000000000000000000000015020008B1
:10003000ED0100080000000013020008170200088C
:10004000BB010008BB010008BB010008BB010008A0
:10005000BB010008BB010008BB010008BB01000890
:10006000BB010008BB010008BB010008BB01000880
:10007000BB010008BB010008BB010008BB01000870
:10008000BB010008BB010008BB010008BB01000860
:10009000BB010008BB010008BB010008BB01000850
:1000A000BB010008BB010008BB010008BB01000840
:1000B000BB010008BB010008BB010008BB01000830
:1000C000BB010008BB010008BB010008BB01000820
:1000D000BB010008BB010008BB010008BB01000810
:1000E000BB010008BB010008BB010008BB01000800
:1000F000BB010008BB010008BB010008BB010008F0
:10010000BB010008BB010008BB010008BB010008DF
:10011000BB010008BB010008BB010008BB010008CF
:10012000BB010008BB010008BB010008BB010008BF
:10013000BB010008BB010008BB010008BB010008AF
:10014000BB010008BB010008BB010008BB0100089F
:10015000BB010008BB010008BB010008BB0100088F
:10016000BB010008BB010008BB010008BB0100087F
:10017000BB010008BB010008BB0100080000000033
:10018000BB010008BB010008DFF810D000F01AF82E
:100190000048004757020008AFF300801004002019
:1001A0000648804706480047FEE7FEE7FEE7FEE711
:1001B000FEE7FEE7FEE7FEE7FEE7FEE721020008B6
:1001C00089010008064C074D06E0E06840F0010395
:1001D00094E8070098471034AC42F6D3FFF7D8FFF5
:1001E0005C0200087C02000800BFFEE770470000C8
:1001F00003480068034909780844014908607047CA
:10020000000000200800002000BFFEE700BFFEE75E
:1002100070477047704710B5FFF7EAFF10BD000048
:100220000348006840F4700001490860704700000E
:1002300088ED00E000BFFEE702E008C8121F08C119
:10024000002AFAD170477047002001E001C1121F57
:10025000002AFBD1704700BFFEE700007C020008C7
:10026000000000200C00000038020008880200088E
:100270000C000020040400004802000800000000F8
:08028000100000000100000065
:040000050800018965
:00000001FF
