:020000040800F2
:10000000C0170020A1010008D1130008C91300087F
:10001000CD130008270300082D1800080000000079
:10002000000000000000000000000000D5130008E0
:100030002B03000800000000D3130008D7130008AA
:10004000BB010008BB010008BB010008BB010008A0
:10005000BB010008BB010008BB010008BB01000890
:10006000BB010008BB010008BB010008BB01000880
:10007000BB010008BB010008BB010008BB01000870
:10008000BB010008BB010008BB010008BB01000860
:10009000BB010008BB010008BB010008BB01000850
:1000A00041140008571400084D1400084B140008B0
:1000B00067140008711400087B140008BB010008D5
:1000C000BB010008BB010008BB010008BB01000820
:1000D000BB010008ED170008FD1700080D18000807
:1000E000BB010008BB010008BB010008A314000805
:1000F000B9140008AF140008AD140008BB010008D3
:10010000BB010008BB01000885140008BB01000802
:10011000A1150008B11500088F14000899140008F3
:10012000BB010008BB010008BB010008BB010008BF
:10013000BB010008BB010008BB010008BB010008AF
:10014000BB010008BB010008BB010008BB0100089F
:10015000BB010008BB010008BB0100081D18000816
:10016000BB010008BB010008BB010008BB0100087F
:10017000BB010008BB010008BB0100080000000033
:10018000BB010008BB010008DFF810D000F08EF8BA
:1001900000480047B5250008AFF30080C0170020D5
:1001A0000648804706480047FEE7FEE7FEE7FEE711
:1001B000FEE7FEE7FEE7FEE7FEE7FEE7E9130008DD
:1001C000890100082DE9F05F0546002092469B4614
:1001D00088460646814640241BE02846414647465D
:1001E000224600F053F853465A46C01A914110D3A4
:1001F00011461846224600F03AF82D1A67EB01081E
:100200004F4622460120002100F031F817EB00098B
:100210004E41201EA4F10104DFDC484631462A4647
:100220004346BDE8F09F40EA01039B0703D009E085
:1002300008C9121F08C0042AFAD203E011F8013BD2
:1002400000F8013B521EF9D27047D2B201E000F82B
:10025000012B491EFBD270470022F6E710B513466A
:100260000A4604461946FFF7F0FF204610BD202A33
:1002700004DB203A00FA02F1002070479140C2F1FD
:10028000200320FA03F3194390407047202A04DB2F
:10029000203A21FA02F00021704721FA02F3D040FF
:1002A000C2F120029140084319467047064C074DA1
:1002B00006E0E06840F0010394E807009847103436
:1002C000AC42F6D3FFF764FFAC320008CC32000832
:1002D00070B58C1810F8015B15F0070301D110F808
:1002E000013B2A1106D110F8012B03E010F8016B35
:1002F00001F8016B5B1EF9D12B0705D40023521EB8
:100300000DD401F8013BFAE710F8013BCB1A921C1F
:1003100003E013F8015B01F8015B521EF9D5A1421D
:10032000D8D3002070BD00BFFEE7704772B600BF93
:10033000FEE70000012001490860704700042742E1
:10034000F8B502460B460025002400200021D6E027
:10035000012606FA01F51E6806EA0504AC4274D1CE
:100360001E7906F00306012E04D01E7906F003065E
:10037000022E13D190684F000326BE40B0434F00B9
:10038000DE68BE4030439060506801268E40B04326
:100390001E79C6F300168E40304350601E7906F079
:1003A0000306032E09D0D0684F000326BE40B04399
:1003B0004F009E68BE403043D0601E7906F00306B1
:1003C000022E13D1CF0802F1200656F827004E075F
:1003D000F70E0F26BE40B0434F07FF0E1E69BE400A
:1003E0003043CF0802F1200646F8270010684F007E
:1003F0000326BE40B0431E7906F003064F00BE4000
:10040000304310605E6806F44036002E76D000BFA0
:10041000002600963C4E366846F480463A4F3E60D1
:100420003E46366806F48046009600BF00BF374E51
:100430008F0856F827008E07370F0F26BE40B043AF
:10044000334EB24202D1002624E057E0314EB24290
:1004500001D101261EE0304EB24201D1022619E040
:100460002E4EB24201D1032614E02D4EB24201D1EC
:1004700004260FE02B4EB24201D105260AE02A4E97
:10048000B24201D1062605E0284EB24201D107262C
:1004900000E008268F073F0FBE4030431B4E8F08F9
:1004A00046F82700224E3068A0435E6806F48016A6
:1004B00006B120431E4E3060361D3068A0435E6892
:1004C00006F4001606B12043194E361D3060184E52
:1004D000361F3068A0435E6806F4003606B120433C
:1004E000134E361F3060361F3068A0435E6806F436
:1004F000803606B120430E4E083E3060491C10295C
:10050000FFF426AFF8BD000044380240083801402F
:10051000000002400004024000080240000C0240BB
:10052000001002400014024000180240001C02406B
:10053000083C014010B5426921EA020302EA0104C5
:1005400043EA0443836110BD0AB1816101E00B04F9
:10055000836170470148006870470000140700205D
:100560000348006803490978084401490860704756
:10057000140700201C07002010B50A48006840F44A
:100580000070084908600846006840F48060086010
:10059000032000F07FF80F2000F006F800F02AF8A2
:1005A000002010BD003C024070B504460E480078A3
:1005B0004FF47A71B1FBF0F00C490968B1FBF0F52A
:1005C000284600F009FC08B1012070BD102C07D2AC
:1005D00000222146501E00F01EF80548046001E08C
:1005E0000120F2E70020F0E71C07002010070020A0
:1005F00018070020704701460846002809DB00F074
:100600001F0301229A4043099B0003F1E023C3F832
:10061000002100BF70472DE9F05F80460D46164669
:10062000002701F005F9074639462A46334601F00E
:100630000700C0F1070ABAF1040F02D94FF0040A0B
:1006400001E0C0F1070AD14600F1040ABAF1070F30
:1006500002D24FF0000A01E0A0F1030AD4464FF0A5
:10066000010A0AFA09FAAAF1010A0AEA020A0AFACE
:100670000CFA4FF0010B0BFA0CFBABF1010B0BEA80
:10068000030B4AEA0B042146404601F0D9F8BDE8C5
:10069000F09F000000BF00F00702064B19684FF6FC
:1006A000FF031940044B0B4343EA0221014B19603D
:1006B00000BF70470CED00E00000FA0570B504467D
:1006C0000D460CB9012070BD5848006800F00700C5
:1006D000A84209D255490D700846006800F007008D
:1006E000A84201D00120EEE7207800F002000228A5
:1006F0001DD1207800F00400042805D14C48006882
:1007000040F4E0504A490860207800F008000828CA
:1007100005D14748006840F46040454908604448B6
:10072000006820F0F000A168084341490860207883
:1007300000F00100A8B36068012807D13C480838E0
:100740000068C0F34040B8B90120BCE760680228E7
:1007500002D06068032807D1354808380068C0F324
:10076000406048B90120AEE7314808380068C0F35E
:10077000400008B90120A6E72D48006820F00300DA
:10078000616808432A490860FFF7E4FE064609E06D
:10079000FFF7E0FE801B41F28831884202D9032036
:1007A00091E707E02248006800F00C006168B0EBB8
:1007B000810FEDD11D48006800F00700A84209D95B
:1007C0001A490D700846006800F00700A84201D0E1
:1007D000012078E7207800F00400042807D11448AD
:1007E000006820F4E050E16808431149086020786F
:1007F00000F00800082808D10D48006820F4604087
:10080000216940EAC1000A49086000F03FF8084940
:100810000968C1F30311074A515CC84006490860E2
:1008200006480068FFF7C0FE00204CE7003C02408D
:1008300008380240943200081007002018070020F2
:1008400001480068704700001007002000B5FFF75E
:10085000F7FF04490968C1F38221034A515CC8408B
:1008600000BD000008380240A432000800B5FFF7C0
:10087000E7FF04490968C1F34231034A515CC840AB
:1008800000BD000008380240A43200082DE9F047FE
:10089000002400250026A1462548006800F00C0031
:1008A00020B1042805D008283AD105E0DFF884906B
:1008B00039E0DFF8849036E01D48001F006800F042
:1008C0003F041B48001F006800F4800078B11A48FC
:1008D0001749091F0968C1F38811A0FB017001467F
:1008E000224600233846FFF76DFC05460EE011480E
:1008F0000F49091F0968C1F38811A0FB0170014667
:10090000224600233846FFF75DFC05460848001FD5
:100910000068C0F30140401C4600B5FBF6F902E058
:10092000DFF8109000BF00BF4846BDE8F087000028
:10093000083802400024F40000127A00F8B504469A
:100940000CB90120F8BD207800F00100002874D017
:10095000F948006800F00C0004280DD0F648006843
:1009600000F00C00082813D1F348001F006800F4C1
:100970008000B0F5800F0BD1EF4808380068C0F355
:100980004040002859D06068002856D10120D9E79E
:1009900000BF6068B0F5803F08D1E74808380068BC
:1009A00040F48030E449083908601EE06068B0F522
:1009B000A02F0DD1E0480838006840F48020DE49BF
:1009C000083908600846006840F4803008600CE090
:1009D000D9480838006820F48030D74908390860C1
:1009E0000846006820F48020086000BF606890B16D
:1009F000FFF7B0FD054606E0FFF7ACFD401B64289D
:100A000001D903209EE7CC4808380068C0F3404075
:100A10000028F1D011E0FFF79DFD054606E0FFF745
:100A200099FD401B642801D903208BE7C248083890
:100A30000068C0F340400028F1D1207800F00200A7
:100A400002285FD1BC48006800F00C0058B1BA48D9
:100A5000006800F00C0008281CD1B748001F00688F
:100A600000F48000B0B9B44808380068C0F3400012
:100A700020B1E068012801D0012063E7AE480838C2
:100A8000006820F0F800216940EAC100AA4908394D
:100A9000086037E0E06800B30120A8490860FFF76C
:100AA00059FD054606E0FFF755FD401B022801D918
:100AB000032047E7A04808380068C0F3400000283A
:100AC000F1D09D480838006820F0F800216940EA1C
:100AD000C10099490839086014E00020974908606E
:100AE000FFF738FD054606E0FFF734FD401B0228FE
:100AF00001D9032026E7904808380068C0F3400079
:100B00000028F1D1207800F0080008282CD1606975
:100B1000A8B101208A490860FFF71CFD054606E0E0
:100B2000FFF718FD401B022801D903200AE782487D
:100B30006C300068C0F340000028F1D014E00020C1
:100B40007F490860FFF706FD054606E0FFF702FD56
:100B5000401B022801D90320F4E677486C30006876
:100B6000C0F340000028F1D1207800F004000428F0
:100B700070D1002770483830006800F0805090B97C
:100B800000BF002000906C483830006840F0805072
:100B90006949383108600846006800F080500090CC
:100BA00000BF00BF01276748006800F48070B0B93B
:100BB0006448006840F4807062490860FFF7CAFC2E
:100BC000054606E0FFF7C6FC401B022801D90320BA
:100BD000B8E65C48006800F480700028F2D000BFDE
:100BE000A068012808D154486830006840F001002E
:100BF0005149683108601DE0A06805280DD14E48B4
:100C00006830006840F004004B49683108600846CD
:100C1000006840F0010008600CE047486830006858
:100C200020F001004449683108600846006820F05F
:100C30000400086000BFA068A8B1FFF78BFC054660
:100C400009E0FFF787FC401B41F28831884202D956
:100C5000032077E626E0384868300068C0F340009B
:100C60000028EED013E0FFF775FC054608E0FFF71B
:100C700071FC401B41F28831884201D9032061E6B2
:100C80002D4868300068C0F340000028EFD1012FE4
:100C900007D129483830006820F080502649383183
:100CA000086000BFA069002845D02348006800F014
:100CB0000C0008285DD0A069022845D100201F49FA
:100CC0000866FFF747FC054606E0FFF743FC401BBC
:100CD000022801D9032035E6174808380068C0F318
:100CE00040600028F1D1D4E907010843616A40EA75
:100CF00081110122A06AC2EB500041EA00412C2080
:100D0000005D41EA00600C49091F086001200B49A1
:100D10000866FFF71FFC054606E0FFF71BFC401BBB
:100D2000022801D903200DE6034808380068C0F303
:100D300040600028F1D049E00838024000004742F6
:100D4000800E474200700040002021490866FFF7EE
:100D500001FC054606E0FFF7FDFB401B022801D918
:100D60000320EFE51B480068C0F340600028F2D183
:100D70002CE0A069012800D1E4E51648001D0668B2
:100D8000A069012820D006F48001E06981421BD1CE
:100D900006F03F01206A814216D147F6C07030400C
:100DA000616AB0EB811F0FD106F440310122A06AC5
:100DB000C2EB5000B1EB004F06D106F070612C2061
:100DC000005DB1EB006F01D00120BBE50020B9E56B
:100DD000000047420038024070B504462546681EB0
:100DE000B0F1807F01D301200FE0681E4FF0E021B9
:100DF00048610F214FF0FF3000F022FD00204FF03E
:100E0000E021886107200861002070BD30B50246EE
:100E10000B4600BF92F83C00012801D1022030BDF2
:100E2000012082F83C0000BF022082F83D001068DB
:100E300044681068816824F07004186804431068DE
:100E40004460184D1068A8421BD01068B0F1804F64
:100E500017D0154D1068A84213D0144D1068A84241
:100E60000FD0134D1068A8420BD0124D1068A84245
:100E700007D0114D1068A84203D0104D1068A84249
:100E800005D121F08001586801431068816001207C
:100E900082F83D0000BF002082F83C0000BF00BF88
:100EA000BDE70000000001400004004000080040D1
:100EB000000C0040000401400040014000180040C8
:100EC00010B504460CB9012010BD94F83D0028B9B6
:100ED000002084F83C00204600F025F8022084F829
:100EE0003D00211D206800F0EFFA012084F8460043
:100EF00000BF84F83E0001213F20015540200155EC
:100F00004120015500BF00BF012084F8420043206A
:100F10000155442001554520015500BF012084F8AA
:100F20003D000020D0E77047014691F83D000128C0
:100F300001D001207047022081F83D001A4B08685B
:100F400098421BD00868B0F1804F17D0174B086843
:100F5000984213D0164B086898420FD0154B08687A
:100F600098420BD0144B0868984207D0134B08687E
:100F7000984203D0124B086898420CD108688068E8
:100F800000F00702062A0CD00868006840F0010053
:100F90000B68186005E00868006840F001000B6805
:100FA00018600020C6E70000000001400004004077
:100FB00000080040000C00400004014000400140D7
:100FC00000180040014600BF0868006A41F2111293
:100FD000104050B90868006A9210104028B908689B
:100FE000006820F001000A68106000BF012081F84D
:100FF0003D000020704710B504460CB9012010BD1B
:10100000A06900B100E000BF94F83D0028B90020BD
:1010100084F83C00204600F027F8242084F83D00A6
:101020002068C06820F400502168C860204600F0A5
:10103000C7FA2068006920F49040216808612068A0
:10104000406920F02A00216848612068C06840F4A7
:1010500000502168C86000202064202084F83D00F2
:1010600084F83E000020CAE710B586B0044614217B
:1010700001A8FFF7F1F8C9492068884238D100BFBC
:1010800000200090C648006840F40020C449086071
:101090000846006800F40020009000BF00BF00BFB9
:1010A00000200090BE481038006840F00100BC49A4
:1010B000103908600846006800F00100009000BF89
:1010C00000BF032001900220029000200390032023
:1010D00004900820059001A9B248FFF731F90022D9
:1010E00011463420FFF797FA3420FFF784FA52E1D3
:1010F000AD492068884255D100BF00200090A84823
:10110000006840F48010A64908600846006800F4B2
:101110008010009000BF00BF00BF00200090A048DA
:101120001038006840F004009D49103908600846F6
:10113000006800F00400009000BF00BF00BF002066
:1011400000900846006840F0080008600846006803
:1011500000F00800009000BF00BF8814019002203A
:10116000029000200390032004900820059001A91C
:101170008E48FFF7E5F8042001900220029000203D
:101180000390032004900820059001A98848FFF7E8
:10119000D7F8002211463520FFF73DFA3520FFF73A
:1011A0002AFAF8E08349206888423BD100BF00203A
:1011B00000907B48001D006840F010007849091D30
:1011C00008600846006800F01000009000BF00BFF3
:1011D00000BF0020009072481038006840F0010005
:1011E0006F49103908600846006800F0010000905F
:1011F00000BF00BF4FF4C0600190022002900020A9
:101200000390032004900720059001A96548FFF78B
:1012100097F8002211462520FFF7FDF92520FFF75A
:10122000EAF9B8E064492068884238D100BF00205C
:1012300000905B48006840F4003059490860084657
:10124000006800F40030009000BF00BF00BF002025
:10125000009053481038006840F0010050491039A0
:1012600008600846006800F00100009000BF00BF61
:101270000C20019002200290002003900320049093
:101280000720059001A94748FFF75AF800221146A8
:101290002620FFF7C0F92620FFF7ADF97BE047498C
:1012A0002068884239D100BF002000903C48006887
:1012B00040F480203A4908600846006800F4802025
:1012C000009000BF00BF00BF0020009034481038DD
:1012D000006840F002003249103908600846006892
:1012E00000F00200009000BF00BF4FF4406001908A
:1012F0000220029000200390032004900720059014
:1013000001A92F48FFF71CF8002211462720FFF7FC
:1013100082F92720FFF76FF93DE02A4920688842CB
:1013200039D100BF002000901D48001D006840F02A
:1013300020001B49091D08600846006800F02000D5
:10134000009000BF00BF00BF00200090144810387C
:10135000006840F00400124910390860084600682F
:1013600000F00400009000BF00BFC02001900220E8
:10137000029000200390032004900820059001A90A
:101380000A48FEF7DDFF002211464720FFF743F928
:101390004720FFF730F906B010BD0000004C0040B8
:1013A0004038024000000240005000400008024067
:1013B000000C024000100140004400400048004082
:1013C000000402400014014000BFFEE700BFFEE73A
:1013D00070477047704710B5FFF7C2F801F0C4FAC4
:1013E00001F0B8FC10BD00001148006840F4700026
:1013F0000F4908600F48006840F001000D4908607F
:1014000000200C49083108600A4800680A49084071
:10141000084908600948091D0860081F006820F491
:101420008020091F0860002002490C3108607047C5
:1014300088ED00E000380240FFFFF6FE1030002487
:1014400010B5082000F074FF10BD704710B50A20D9
:1014500000F06EFF10BD10B5002000F069FF0920FC
:1014600000F066FF10BD10B5012000F061FF10BD57
:1014700010B5022000F05CFF10BD10B5032000F095
:1014800057FF10BD10B5042000F052FF10BD10B57D
:10149000052000F04DFF10BD10B5062000F048FFFC
:1014A00010BD10B50B2000F043FF10BD704710B504
:1014B0000D2000F03DFF10BD10B5072000F038FFF3
:1014C0000C2000F035FF10BD10B50268294B984282
:1014D0000ED0B0F1804F0BD0274B984208D0274B4D
:1014E000984205D0264B984202D0264B984203D111
:1014F00022F070024B681A431E4B984220D0B0F184
:10150000804F1DD01C4B98421AD01C4B984217D0CC
:101510001B4B984214D01B4B984211D01A4B984247
:101520000ED01A4B98420BD0194B984208D0194B49
:10153000984205D0184B984202D0184B984203D1DC
:1015400022F44072CB681A4322F080034C6943EACC
:10155000040202608B68C3620B688362054B984289
:1015600002D0084B984201D10B6903630123436108
:1015700010BD0000000001400004004000080040D1
:10158000000C0040000401400040014000440140C4
:101590000048014000180040001C004000200040AE
:1015A00010B5024801F074FD10BD000020000020BD
:1015B00010B5024801F06CFD10BD00004C00002089
:1015C0002DE9F84F04462068006920F44050E16896
:1015D0000843216808612169A068084361690843DC
:1015E000E169084300902068C06849F20C618843B3
:1015F000009908432168C8602068406920F4407061
:10160000A16908432168486176492068884203D06F
:1016100075492068884203D1FFF728F9814602E026
:10162000FFF714F98146E069B0F5004F6CD1022054
:101630006168A0FB015003461920A9FB0070014618
:101640002A463846FEF7BEFD6421B0FBF1F04FEAB2
:10165000001A02206168A0FB01510B461920A9FB6A
:1016600000712A463846FEF7ADFD834602206168C8
:10167000A0FB015003461920A9FB00712A463846F9
:10168000FEF7A0FD6421B0FBF1F000EBC00101EB1F
:101690000010ABEB8000322101EBC0006421B0FBF5
:1016A000F1F000F0F8000AEB400A02206168A0FBAC
:1016B000015003461920A9FB007001462A4638460E
:1016C000FEF780FD834602206168A0FB01500346BF
:1016D0001920A9FB00712A463846FEF773FD6421E4
:1016E000B0FBF1F000EBC00101EB0010ABEB8000B0
:1016F000322101EBC0006421B0FBF1F000F00700E3
:101700005044216888606AE004206168A0FB0150B1
:1017100003461920A9FB007001462A463846FEF709
:1017200051FD824604206168A0FB01500346192048
:10173000A9FB007001462A463846FEF743FD6421A6
:10174000B0FBF1F000EBC00101EB0010AAEB800050
:10175000322101EB00106421B0FBF1F000F0F00A3F
:1017600004206168A0FB017003461920A9FB005109
:101770003A462846FEF726FD6421B0FBF1F00AEB5D
:10178000001A04206168A0FB01510B461920A9FB37
:1017900000712A463846FEF715FD8346042061682D
:1017A000A0FB015003461920A9FB007001462A4600
:1017B0003846FEF707FD6421B0FBF1F000EBC001F5
:1017C00001EB0010ABEB8000322101EB0010642133
:1017D000B0FBF1F000F00F00504421688860BDE8D4
:1017E000F88F0000001001400014014010B50248BD
:1017F00001F04EFC10BD00007800002010B502483A
:1018000001F046FC10BD0000A400002010B5024805
:1018100001F03EFC10BD0000D000002010B50248D1
:1018200001F036FC10BD0000FC00002000BFFEE708
:1018300002480068C0F30220704700000CED00E091
:1018400010B5002804DB0A07130E054A135406E0FE
:101850000A07140E034A00F00F031B1FD45410BDD7
:1018600000E400E018ED00E002E008C8121F08C123
:10187000002AFAD170477047002001E001C1121F11
:10188000002AFBD1704780F31088704710B5002400
:1018900006E0054901EBC40000F034F9601CC4B255
:1018A000002CF6D0002010BD8C32000810B5044684
:1018B0000CB90E4810BD012C01D10D48FAE7022CDD
:1018C00001D10C48F6E7032C01D10B48F2E7042CB8
:1018D00001D10A48EEE7052C01D10948EAE740F2B8
:1018E000711108A0FEF722FD0020E3E77800002038
:1018F000A4000020D0000020200000204C00002088
:10190000FC0000202E2E5C2E2E5C7372635C6469DA
:1019100072766572735C6472697665725F75617206
:10192000745C6472697665725F756172745F666912
:10193000666F2E63000000002DE9F04105460E465B
:1019400017462846FFF7B2FF04460CB9BDE8F08100
:10195000E06908B1E06980473A463146204601F027
:1019600024FC00BFF2E7000010B5044C02E0206840
:101970008047241D02488442F9D310BD403200083C
:101980004C32000810B5044C02E020688047241D4A
:1019900002488442F9D310BD4C3200085832000886
:1019A00010B50024A6E0C4EBC400544911F810009F
:1019B00060B1C4EBC40001EB4000808830B1C4EBDF
:1019C000C40001EB4000007B012800D190E0C4EB93
:1019D000C4004A4901EB4000407868BBC4EBC40036
:1019E00001EB40008088002825DDC4EBC40001EB3A
:1019F0004000C088401C80B2C4EBC4013F4A02EBE7
:101A00004101C880C4EBC40102EB4101498888420E
:101A10006DDB3B4901EBC40000F05DF90020C4EB35
:101A2000C401364A02EB4101C8800120C4EBC40165
:101A300002EB410148705AE0C4EBC4002F4901EBAE
:101A400040004078012852D1C4EBC40001EB4000B3
:101A5000C088401C80B2C4EBC401284A02EB41019B
:101A6000C880C4EBC40102EB4101898888423EDB97
:101A7000C4EBC400114601EB40000089002825DDBD
:101A8000C4EBC40001EB40004089401C80B2C4EBB1
:101A9000C40102EB41014881C4EBC40102EB4101E6
:101AA0000989884204DB0020C4EBC40102F811005C
:101AB000C4EBC400114911F8100038B90020C4EB80
:101AC000C4010E4A02EB4101888011E00020C4EB02
:101AD000C4010A4A02EB4101C880C4EBC40102EB15
:101AE00041014870064901EBC40000F0FCF800BF5A
:101AF000601CC4B2002C3FF456AF10BD6E0700202E
:101B00008C32000810B586B00446624920688842CD
:101B10000FD100BF002000905F48006840F0010036
:101B20005D4908600846006800F00100009000BFB1
:101B30009FE05A49206888420FD100BF00200090E2
:101B40005548006840F002005349086008460068A4
:101B500000F00200009000BF8BE0514920688842ED
:101B60000FD100BF002000904B48006840F00400F7
:101B7000494908600846006800F00400009000BF72
:101B800077E04849206888420FD100BF00200090CC
:101B90004148006840F008003F4908600846006876
:101BA00000F00800009000BF63E03F4920688842D1
:101BB0000FD100BF002000903748006840F01000AF
:101BC000354908600846006800F01000009000BF2A
:101BD0004FE03649206888420FD100BF00200090B6
:101BE0002D48006840F020002B4908600846006836
:101BF00000F02000009000BF3BE02D4920688842A3
:101C00000FD100BF002000902348006840F0400042
:101C1000214908600846006800F04000009000BFBD
:101C200027E02449206888420FD100BF002000909F
:101C30001948006840F080001749086008460068AD
:101C400000F08000009000BF13E01B49206888422C
:101C50000FD100BF002000900F48006840F4807052
:101C60000D4908600846006800F48070009000BFCD
:101C700000BF204600F02FF80120029000200390C2
:101C800003200490A088019001A92068FEF758FB6A
:101C900006B010BD0000024030380240000402408F
:101CA00000080240000C02400010024000140240F4
:101CB00000180240001C02400020024010B50446FB
:101CC000012C00DB10BD01231A460521204600F03F
:101CD00013F800BFF6E710B50446A188002220687B
:101CE000FEF732FC10BD10B50446A1880122206821
:101CF000FEF72AFC10BD00002DE9F04104460D4618
:101D000016461F46012C01DA05B10EB9BDE8F08177
:101D1000C4EBC400164901EB40004580C4EBC4008D
:101D200001EB400086800020C4EBC401104A02EBA6
:101D30004101C880C4EBC400114601EB400007819B
:101D40000020C4EBC40102EB41014881C4EBC40193
:101D500002EB410148700120C4EBC40102F81100FC
:101D6000044901EBC400FFF7BEFF00BFCEE700004F
:101D70006E0700208C32000870B50546304800EB35
:101D80000514284600F076FB00283ED0207905286F
:101D900002DA0520207152E020790A2803DA20793E
:101DA000401C20714BE0A07A38B90120A07205EBED
:101DB0004501491CC8B200F06DF9208900283EDDBC
:101DC000E088218988420DDAE088401C80B2E080FA
:101DD0002189884233D105EB4501C91CC8B200F006
:101DE00059F92CE0E07A002829DD207B401CC0B2A4
:101DF0002073E17A884222DB0020207305EB450145
:101E0000491CC8B200F046F919E02079052802DD26
:101E10000520207110E0207918B12079401E207132
:101E20000AE0A07A012807D10020A07205EB450145
:101E3000891CC8B200F02EF90020E080207370BD2C
:101E4000200700200B48807A0A4AD27A904201D1BA
:101E5000002070470748807A064A115C1046807A55
:101E6000401CC0B290720A2801DB00209072084624
:101E7000EFE700006007002010B586B00446614916
:101E8000206888420FD100BF002000905E480068A3
:101E900040F001005C4908600846006800F001005D
:101EA000009000BF9FE05949206888420FD100BFD1
:101EB000002000905448006840F002005249086039
:101EC0000846006800F00200009000BF8BE0504917
:101ED000206888420FD100BF002000904A48006867
:101EE00040F00400484908600846006800F004001B
:101EF000009000BF77E04749206888420FD100BFBB
:101F0000002000904048006840F008003E4908600A
:101F10000846006800F00800009000BF63E03E49FA
:101F2000206888420FD100BF00200090364800682A
:101F300040F01000344908600846006800F01000C6
:101F4000009000BF4FE03549206888420FD100BFA4
:101F5000002000902C48006840F020002A490860CA
:101F60000846006800F02000009000BF3BE02C49CC
:101F7000206888420FD100BF0020009022480068EE
:101F800040F04000204908600846006800F040002A
:101F9000009000BF27E02349206888420FD100BF8E
:101FA000002000901848006840F080001649086042
:101FB0000846006800F08000009000BF13E01A4956
:101FC000206888420FD100BF002000900E480068B2
:101FD00040F480700C4908600846006800F4807086
:101FE000009000BF00BF002002900120039003205A
:101FF0000490A088019001A92068FEF7A1F906B01D
:1020000010BD0000000002403038024000040240D1
:1020100000080240000C0240001002400014024080
:1020200000180240001C02400020024010B50024AD
:1020300004E02046FFF7A0FE601CC4B2042CF8DBCD
:1020400010BD00000021114A91721173D17200205D
:1020500018E064210E4A02EB0012118102210C4AA1
:1020600002EB001211710021094A02EB0012917279
:10207000074A02EB0012D172054A02EB00121173FB
:10208000411CC8B20428E4DB704700006007002050
:10209000200700200649C97A054A50541146C97ADA
:1020A000491CC9B2D1720A2901DB0021D1727047E3
:1020B000600700200FB42DE9FC4104460020009089
:1020C000019004EBC40101EB4101864A02EB81015E
:1020D000886C00F065FE04EBC40101EB4101814A0C
:1020E00002EB8101896D491CB0FBF1F69DF82C00D3
:1020F00018B97D48B6FBF0F518E09DF82C000128D2
:1021000003D17A48B6FBF0F510E09DF82C000228C8
:1021100004D142F21070B6FBF0F507E09DF82C00F8
:10212000032803D14FF47A70B6FBF0F504EBC4003A
:1021300000EB40006B4901EB8000806CB0F1804FF8
:1021400010D004EBC40000EB400001EB8000806C79
:102150006749884206D00A98B0F5803F02D34FF60F
:10216000FF700A900A98471E04EBC40000EB400081
:102170005C4901EB800009A991E80E105C30A0E8F1
:102180000E1004EBC40101EB4101564A02EB810140
:10219000886C00F047FA04EBC40303EB4303DFF859
:1021A00044C10CEB83035A6D04EBC40303EB4303FC
:1021B0000CEB8303196D04EBC40303EB43030CEB3B
:1021C000830393F94C00FEF726FA04EBC40101EBFC
:1021D0004101444A02EB810191F94C00FEF70BFAF0
:1021E00004EBC40000EB40003E4901EB8000806C32
:1021F00004EBC40101EB41013A4A42F82100681E98
:1022000004EBC40101EB410102EB810148600021B4
:1022100004EBC40000EB400002EB8000816004EBA3
:10222000C40000EB4000114601EB8000C76004EBE6
:10223000C40000EB400001EB8000816D04EBC400A2
:1022400000EB400002EB80000161002104EBC400C0
:1022500000EB400002EB8000816104EBC40101EB64
:10226000410102EB8100FEF72BFE18B1B22121A043
:10227000FEF75CF804EBC40000EB4000194901EBE9
:102280008000806C2849884215D004EBC40000EB24
:102290004000144901EB8000806C154988420AD047
:1022A00004EBC40000EB40000E4901EB8000806CA1
:1022B0001E49884211D100200090019004EBC40116
:1022C00001EB4101074A02EB81006946FEF79EFDE2
:1022D00018B1BA2107A0FEF729F8BDE8FC015DF8A6
:1022E00014FB00002801002040420F00A0860100DE
:1022F000000C00402E2E5C2E2E5C7372635C6469B1
:1023000072766572735C6472697665725F74696D0A
:1023100065725C6472697665725F74696D65725F1F
:10232000626173652E6300000000014000100040F0
:1023300010B5044604EBC40000EB40001B4951F803
:102340002000006900F0010070B304EBC40000EB52
:10235000400051F82000C06800F0010020B36FF089
:10236000010004EBC40101EB4101104A52F82110B5
:10237000086104EBC40101EB410102EB8101886EAD
:10238000804704EBC40000EB4000084901EB8000EB
:1023900090F85C0040B904EBC40101EB4101034A31
:1023A00002EB8100FEF70EFE10BD000028010020A8
:1023B00010B5044604EBC40101EB4101024A02EBF3
:1023C0008100FEF7B1FD10BD280100200FB410B54B
:1023D00092B01F9C149801900294002103910491E3
:1023E00005910C21069100210791089100208DF89C
:1023F000410001A8FEF7FFFD20B140F265210CA0CD
:10240000FDF794FF1498006820F0400014990860CC
:102410001498006820F02000149908601498C0688F
:1024200040F020001499C86012B010BC5DF814FB95
:102430002E2E5C2E2E5C7372635C646972766572FC
:10244000735C6472697665725F756172745C6472E4
:10245000697665725F756172745F6669666F2E6317
:1024600000000000002070470020704700207047E7
:10247000002070472DE9F0410546042D17DA0026AB
:10248000FF27002408E0204600F07AF810B1701C05
:10249000C6B22746601CC4B2042CF4DB012E04D162
:1024A000AF4202D10120BDE8F0810020FBE700200F
:1024B000F9E7000010B5FFF7C5FD002405E0054968
:1024C00001EBC400FFF7D8FC641C042CF7D30020F8
:1024D00010BD00006C32000810B5FFF7B3FC0446D5
:1024E000002C47D00D2C43D2DFE804F042070B1438
:1024F000181F23272E32363A3E000020FFF7DEFB5E
:1025000037E0002000F088FB04221BA10020FFF729
:1025100013FA2EE0002000F06FFB2AE00A230522C8
:1025200011460020FFF7E8FB23E0002000F084FBC9
:102530001FE0002000F080FB1BE003233222114645
:102540000020FFF7D9FB14E0012000F075FB10E03C
:10255000012000F071FB0CE0022000F06DFB08E0B0
:10256000022000F069FB04E0022000F065FB00E0BF
:1025700000BF00BF10BD00005445535400000000D0
:1025800001460B4850F831000069094B03EBC103C9
:102590009B88184008B9002200E00122044800EBA3
:1025A000C1008079904201D1012070470020FCE7F2
:1025B0006C32000886B0FDF7DFFF00F04BFB00F047
:1025C000C1FB144B4FF6FF720A21012000F0A2F963
:1025D000114B4FF6FF720A21022000F09BF90F4BBE
:1025E0004FF6FF720121032000F094F90C4B0FCB42
:1025F000CDE90423CDE9020105980090002002A94D
:102600000EC9FFF757FD0020FFF7D2FE01E000F0F2
:1026100063F9FCE72D200008A1190008D92400085F
:102620005C32000838B50446904884420FD100BFA0
:10263000002000908E48006840F001008C4908603E
:102640000846006800F00100009000BF0CE1B4F102
:10265000804F11D100BF002000908548001F006806
:1026600040F001008249091F08600846006800F038
:102670000100009000BFF7E07E48844211D100BF06
:10268000002000907A48001F006840F0020078495E
:10269000091F08600846006800F00200009000BFB3
:1026A000E2E07548844211D100BF002000907048DC
:1026B000001F006840F004006D49091F08600846CB
:1026C000006800F00400009000BFCDE06B48844239
:1026D00011D100BF002000906548001F006840F045
:1026E00008006349091F08600846006800F00800F8
:1026F000009000BFB8E06248844211D100BF0020C2
:1027000000905B48001F006840F010005849091F06
:1027100008600846006800F01000009000BFA3E0C9
:102720005848844211D100BF002000905048001F3B
:10273000006840F020004E49091F08600846006804
:1027400000F02000009000BF8EE04F4884420FD17F
:1027500000BF002000904648006840F00200444955
:1027600008600846006800F00200009000BF7BE0AF
:10277000464884420FD100BF002000903C480068CA
:1027800040F480303A4908600846006800F4803020
:10279000009000BF68E03E4884420FD100BF002097
:1027A00000903348006840F4003031490860084622
:1027B000006800F40030009000BF55E035488442C6
:1027C0000FD100BF002000902948006840F480200D
:1027D000274908600846006800F48020009000BF88
:1027E00042E02D48844211D100BF002000902048D3
:1027F000001F006840F040001D49091F086008469E
:10280000006800F04000009000BF2DE023488442A3
:1028100011D100BF002000901548001F006840F053
:1028200080001349091F08600846006800F0800016
:10283000009000BF18E01A48844211D100BF002068
:1028400000900B48001F006840F480700849091F81
:1028500008600846006800F48070009000BF03E044
:10286000372110A0FDF762FD38BD000000000140D7
:10287000443802400004004000080040000C0040C2
:1028800000100040001400400004014000400140DE
:10289000004401400048014000180040001C004076
:1028A000002000402E2E5C2E2E5C7372635C6469E7
:1028B00072766572735C6472697665725F74696D55
:1028C00065725C6472697665725F74696D65722E9B
:1028D000630000007047704710B5002415E00C48F5
:1028E00000EB0410407870B10020094901EB04119D
:1028F0004870074800EB0410C06820B1044901EBA0
:102900000411C8688047601C84B2042CE7DB10BD4A
:102910007C13002030B50446042C02DB6FF0090064
:1029200030BD00200F4D05EB041528700D4D05EB53
:10293000041568700B4D05EB04156860094800EB41
:1029400004108160074800EB04104280054800EB4A
:102950000410C3600120034D05EB0415287000200E
:10296000DEE700007C13002000203FE0214901EB5E
:102970000011097899B31F4901EB00114968491CFE
:102980001C4A02EB001251601A4901EB0011496820
:10299000184A02EB00129268914226D30021154A90
:1029A00002EB001251600121124A02EB0012517039
:1029B000104901EB00114988002911DD0D4901EB97
:1029C000001149884FF6FF7291420ED0094901EB80
:1029D00000114988491E074A02EB0012518004E0A9
:1029E0000021044A02EB00121170401C0428BDDBD8
:1029F000704700007C13002010B5002403E0E0B213
:102A000000F006F8641C032CF9DB002010BD000068
:102A100010B586B004466D4850F834006C498842C1
:102A20000FD100BF002000906A48006840F001000C
:102A3000684908600846006800F00100009000BF87
:102A4000AFE0624850F83400634988420FD100BFBC
:102A5000002000905F48006840F002005D49086077
:102A60000846006800F00200009000BF99E0574857
:102A700050F83400594988420FD100BF002000901F
:102A80005448006840F00400524908600846006855
:102A900000F00400009000BF83E04C4850F8340080
:102AA0004F4988420FD100BF00200090494800687C
:102AB00040F00800474908600846006800F0080038
:102AC000009000BF6DE0414850F83400454988420D
:102AD0000FD100BF002000903E48006840F0100079
:102AE0003C4908600846006800F01000009000BFF4
:102AF00057E0364850F834003B4988420FD100BFB8
:102B0000002000903348006840F020003149086000
:102B10000846006800F02000009000BF41E02B480C
:102B200050F83400314988420FD100BF0020009096
:102B30002848006840F040002649086008460068C0
:102B400000F04000009000BF2BE0204850F8340017
:102B5000274988420FD100BF002000901D4800681F
:102B600040F080001B4908600846006800F08000C3
:102B7000009000BF15E0154850F834001D49884208
:102B80000FD100BF002000901248006840F4807010
:102B9000104908600846006800F48070009000BF8B
:102BA00000BF01200290002003900490074800EB32
:102BB000C40080880190054951F8340001A9FDF74F
:102BC000BFFB204600F018F806B010BD0000002042
:102BD0000000024030380240000402400008024079
:102BE000000C024000100240001402400018024095
:102BF000001C02400020024010B50446054A02EBCA
:102C0000C4029188034A52F834000122FDF79CFC6B
:102C1000002010BD0000002010B50446054A02EB5C
:102C2000C4029188034A52F834000022FDF78CFC5C
:102C3000012010BD0000002010B50446044A02EB3C
:102C4000C4029188024A52F83400FDF773FC10BDAB
:102C50000000002000B593B000BF00200190304874
:102C6000006840F080502E4908600846006800F077
:102C70008050019000BF00BF00BF00200190294894
:102C8000006840F48040274908600846006800F466
:102C90008040019000BF00BF01200290000403901B
:102CA000022008904105099108210A914FF4A8716A
:102CB0000B9102210C9104210D9102A8FDF73EFE1B
:102CC00018B1952118A0FDF731FB0F200E900220BE
:102CD0000F90002010904FF4A05011904FF48050AE
:102CE000129005210EA8FDF7E9FC18B1A8210EA04D
:102CF000FDF71CFB00BF002001900948001D006883
:102D000040F480400649091D08600846006800F448
:102D10008040019000BF00BFFDF70CFB13B000BD69
:102D200040380240007000402E2E5C2E2E5C7372E4
:102D3000635C646972766572735C626173652E634D
:102D40000000000010B5FEF70FFEFEF71BFE00208E
:102D500010BD000010B5FFF7BEFD0C480068401C18
:102D60000A49086008460068401C08B9002008604D
:102D700007480078401CC0B2054908700A2803DBE8
:102D800000200870FFF7A6FD10BD0000180000200D
:102D90001C00002010B50020FFF74EFF10BD000002
:102DA0000146094881420BD00848814208D00848B2
:102DB000814205D00748814202D00748814201D1B3
:102DC000064870470648FCE7000001400004014047
:102DD000004001400044014000480140007A030ADD
:102DE00000BD010500B593B0A3490A684B68886827
:102DF000C968CDE90823CDE90A019F48008AADF8EA
:102E000030009D48408AADF832009B48808AADF87A
:102E100034009948C08AADF836009748008BADF869
:102E200038009548408BADF83A00934AD069116A52
:102E3000536A926ACDE91132CDE90F014FF4E130C6
:102E40001C220CA907906846FDF7EDF908A80FC8E9
:102E5000FFF7BCFA894B19685A689868DB68CDE9B6
:102E60000A03CDE908128548008AADF8300083488E
:102E7000408AADF832008148808AADF834007F483E
:102E8000C08AADF836007D48008BADF838007B482D
:102E9000408BADF83A00794BD969186A5A6A9B6A37
:102EA000CDE91123CDE90F104FF4E1301C220CA91C
:102EB00007906846FDF7B7F908A80FC8FFF786FA2C
:102EC0006F4B18685A689968DB68CDE90A13CDE939
:102ED00008026B48008AADF830006948408AADF8B6
:102EE00032006748808AADF834006548C08AADF882
:102EF00036006348008BADF838006148408BADF870
:102F00003A005F4BDA69186A596A9B6ACDE9111376
:102F1000CDE90F204FF4E1301C220CA90790684640
:102F2000FDF781F908A80FC8FFF750FA554B1A684A
:102F300058689968DB68CDE90A13CDE90820514843
:102F4000008AADF830004F48408AADF832004D4855
:102F5000808AADF834004B48C08AADF83600494845
:102F6000008BADF838004748408BADF83A00454B30
:102F7000D869196A5A6A9B6ACDE91123CDE90F0114
:102F80004FF4E1301C220CA907906846FDF74BF97D
:102F900008A80FC8FFF71AFA3B4B18685A689968D7
:102FA000DB68CDE90A13CDE908023748008AADF89D
:102FB00030003548408AADF832003348808AADF899
:102FC00034003148C08AADF836002F48008BADF888
:102FD00038002D48408BADF83A002B4BD969186A60
:102FE0005A6A9B6ACDE91123CDE90F104FF4E13005
:102FF0001C220CA907906846FDF715F908A80FC810
:10300000FFF7E4F9214B18685A689968DB68CDE945
:103010000A13CDE908021D48008AADF830001B48AC
:10302000408AADF832001948808AADF8340017485C
:10303000C08AADF836001548008BADF8380013484B
:10304000408BADF83A00114BD869196A5A6A9B6AED
:10305000CDE91123CDE90F014FF4E1301C220CA979
:1030600007906846FDF7DFF808A80FC8FFF7AEF92C
:10307000002013B000BD0000200000204C00002004
:1030800078000020A4000020D0000020FC000020D8
:103090002DE9F0410446206805682068C66820686C
:1030A000D0F8148005F0200008B32068006820F0F4
:1030B00020002168086020684068C7B2E18AA068E3
:1030C0004754E08A401C80B2E082E189884201DBFB
:1030D0000020E082608BE189884202DA608B401C2C
:1030E0006083606A10B13846616A884700BF05F0A6
:1030F000800058B306F0800040B3A08A90B92068E1
:10310000C06820F080002168C8602068006820F056
:103110008000216808602068C06840F04000216895
:10312000C86013E0012084F82800618A6068405C70
:1031300021684860608A401C80B26082E1898842D0
:1031400001DB00206082A08A401EA08205F04000C2
:1031500048B306F0400030B3A08A98B92068C06830
:1031600020F040002168C8602068006820F040001E
:1031700021680860206A08B1206A8047002084F82E
:10318000280010E0618A6068405C21684860608ABD
:10319000401C80B26082E189884201DB00206082AD
:1031A000A08A401EA082BDE8F081F8B504460F4613
:1031B0001646002539E01EE00120FEF764FBA08AD8
:1031C00000900020FEF75FFBA089BDF80010884248
:1031D00000DD11E0A089BDF8001088420AD1206806
:1031E000C06800F0800028B92068C06840F0800006
:1031F0002168C86000BFDFE700BF785D228A616890
:1032000088540120FEF73FFB208A401C80B22082B8
:10321000A189884201DB00202082A08A401CA08274
:103220000020FEF730FB681C85B2B542C3DB206886
:10323000C06840F080002168C860F8BD71240008B3
:1032400069240008F9290008E52D00086524000814
:10325000B52400088D1800086D2400080100000046
:10326000E803000003000000952D00080014024050
:1032700040000000001402408000000000140240E2
:10328000000100000014024000020000001802408B
:1032900080000000000000000000000001020304A4
:1032A000060708090000000001020304CC320008F0
:1032B0000000002020070000D0020008943300081E
:1032C00020070020A0100000781800081145100207
:1032D00040081908421014180240B202124C14405F
:1032E0007C0714207C0812201A0102011C1A502CA1
:1032F0001A092C0A210A2C1E1001407C0B2C0A21D1
:103300000C2C1A44581A0D2C0A210E2C1A482C1A6F
:103310000F2C0A21102C1A14841A112C0A21122C99
:1033200001492C0140190681025D02AB401C6C0969
:103330005AE212040B66401D6C12080B66401E6CAC
:10334000120C0B6640326C12100B6640366C121475
:103350000B6640376CAD0401402C63025B020D66C6
:10336000400140186C0D66440140196C0D6648011F
:10337000401A6C1218AB402B6C79090153121C0BCC
:1033800066402C6C12200B1E402D6C5324F45A10F6
:043390001F0000001A
:040000050800018965
:00000001FF
