:020000040800F2
:10000000D8110020A1010008E9110008E111000841
:10001000E511000827030008E514000800000000AF
:10002000000000000000000000000000ED110008CA
:100030002B03000800000000EB110008EF1100087E
:10004000BB010008BB010008BB010008BB010008A0
:10005000BB010008BB010008BB010008BB01000890
:10006000BB010008BB010008BB010008BB01000880
:10007000BB010008BB010008BB010008BB01000870
:10008000BB010008BB010008BB010008BB01000860
:10009000BB010008BB010008BB010008BB01000850
:1000A000BB010008BB010008BB010008BB01000840
:1000B000BB010008BB010008BB010008BB01000830
:1000C000BB010008BB010008BB010008BB01000820
:1000D000BB010008A5140008B5140008C5140008E9
:1000E000BB010008BB010008BB010008BB01000800
:1000F000BB010008BB010008BB010008BB010008F0
:10010000BB010008BB010008BB010008BB010008DF
:100110005912000869120008BB010008BB01000861
:10012000BB010008BB010008BB010008BB010008BF
:10013000BB010008BB010008BB010008BB010008AF
:10014000BB010008BB010008BB010008BB0100089F
:10015000BB010008BB010008BB010008D514000862
:10016000BB010008BB010008BB010008BB0100087F
:10017000BB010008BB010008BB0100080000000033
:10018000BB010008BB010008DFF810D000F08EF8BA
:10019000004800478D1E0008AFF30080D8110020F2
:1001A0000648804706480047FEE7FEE7FEE7FEE711
:1001B000FEE7FEE7FEE7FEE7FEE7FEE701120008C6
:1001C000890100082DE9F05F0546002092469B4614
:1001D00088460646814640241BE02846414647465D
:1001E000224600F053F853465A46C01A914110D3A4
:1001F00011461846224600F03AF82D1A67EB01081E
:100200004F4622460120002100F031F817EB00098B
:100210004E41201EA4F10104DFDC484631462A4647
:100220004346BDE8F09F40EA01039B0703D009E085
:1002300008C9121F08C0042AFAD203E011F8013BD2
:1002400000F8013B521EF9D27047D2B201E000F82B
:10025000012B491EFBD270470022F6E710B513466A
:100260000A4604461946FFF7F0FF204610BD202A33
:1002700004DB203A00FA02F1002070479140C2F1FD
:10028000200320FA03F3194390407047202A04DB2F
:10029000203A21FA02F00021704721FA02F3D040FF
:1002A000C2F120029140084319467047064C074DA1
:1002B00006E0E06840F0010394E807009847103436
:1002C000AC42F6D3FFF764FF2C2700084C27000848
:1002D00070B58C1810F8015B15F0070301D110F808
:1002E000013B2A1106D110F8012B03E010F8016B35
:1002F00001F8016B5B1EF9D12B0705D40023521EB8
:100300000DD401F8013BFAE710F8013BCB1A921C1F
:1003100003E013F8015B01F8015B521EF9D5A1421D
:10032000D8D3002070BD00BFFEE7704772B600BF93
:10033000FEE70000012001490860704700042742E1
:10034000F8B502460B460025002400200021D6E027
:10035000012606FA01F51E6806EA0504AC4274D1CE
:100360001E7906F00306012E04D01E7906F003065E
:10037000022E13D190684F000326BE40B0434F00B9
:10038000DE68BE4030439060506801268E40B04326
:100390001E79C6F300168E40304350601E7906F079
:1003A0000306032E09D0D0684F000326BE40B04399
:1003B0004F009E68BE403043D0601E7906F00306B1
:1003C000022E13D1CF0802F1200656F827004E075F
:1003D000F70E0F26BE40B0434F07FF0E1E69BE400A
:1003E0003043CF0802F1200646F8270010684F007E
:1003F0000326BE40B0431E7906F003064F00BE4000
:10040000304310605E6806F44036002E76D000BFA0
:10041000002600963C4E366846F480463A4F3E60D1
:100420003E46366806F48046009600BF00BF374E51
:100430008F0856F827008E07370F0F26BE40B043AF
:10044000334EB24202D1002624E057E0314EB24290
:1004500001D101261EE0304EB24201D1022619E040
:100460002E4EB24201D1032614E02D4EB24201D1EC
:1004700004260FE02B4EB24201D105260AE02A4E97
:10048000B24201D1062605E0284EB24201D107262C
:1004900000E008268F073F0FBE4030431B4E8F08F9
:1004A00046F82700224E3068A0435E6806F48016A6
:1004B00006B120431E4E3060361D3068A0435E6892
:1004C00006F4001606B12043194E361D3060184E52
:1004D000361F3068A0435E6806F4003606B120433C
:1004E000134E361F3060361F3068A0435E6806F436
:1004F000803606B120430E4E083E3060491C10295C
:10050000FFF426AFF8BD000044380240083801402F
:10051000000002400004024000080240000C0240BB
:10052000001002400014024000180240001C02406B
:10053000083C014010B5426921EA020302EA0104C5
:1005400043EA0443836110BD0AB1816101E00B04F9
:100550008361704701480068704700002C0100204B
:100560000348006803490978084401490860704756
:100570002C0100203401002010B50A48006840F426
:100580000070084908600846006840F48060086010
:10059000032000F07FF80F2000F006F800F02AF8A2
:1005A000002010BD003C024070B504460E480078A3
:1005B0004FF47A71B1FBF0F00C490968B1FBF0F52A
:1005C000284600F009FC08B1012070BD102C07D2AC
:1005D00000222146501E00F01EF80548046001E08C
:1005E0000120F2E70020F0E734010020280100207C
:1005F00030010020704701460846002809DB00F062
:100600001F0301229A4043099B0003F1E023C3F832
:10061000002100BF70472DE9F05F80460D46164669
:10062000002700F061FF074639462A46334601F0AD
:100630000700C0F1070ABAF1040F02D94FF0040A0B
:1006400001E0C0F1070AD14600F1040ABAF1070F30
:1006500002D24FF0000A01E0A0F1030AD4464FF0A5
:10066000010A0AFA09FAAAF1010A0AEA020A0AFACE
:100670000CFA4FF0010B0BFA0CFBABF1010B0BEA80
:10068000030B4AEA0B042146404600F035FFBDE863
:10069000F09F000000BF00F00702064B19684FF6FC
:1006A000FF031940044B0B4343EA0221014B19603D
:1006B00000BF70470CED00E00000FA0570B504467D
:1006C0000D460CB9012070BD5848006800F00700C5
:1006D000A84209D255490D700846006800F007008D
:1006E000A84201D00120EEE7207800F002000228A5
:1006F0001DD1207800F00400042805D14C48006882
:1007000040F4E0504A490860207800F008000828CA
:1007100005D14748006840F46040454908604448B6
:10072000006820F0F000A168084341490860207883
:1007300000F00100A8B36068012807D13C480838E0
:100740000068C0F34040B8B90120BCE760680228E7
:1007500002D06068032807D1354808380068C0F324
:10076000406048B90120AEE7314808380068C0F35E
:10077000400008B90120A6E72D48006820F00300DA
:10078000616808432A490860FFF7E4FE064609E06D
:10079000FFF7E0FE801B41F28831884202D9032036
:1007A00091E707E02248006800F00C006168B0EBB8
:1007B000810FEDD11D48006800F00700A84209D95B
:1007C0001A490D700846006800F00700A84201D0E1
:1007D000012078E7207800F00400042807D11448AD
:1007E000006820F4E050E16808431149086020786F
:1007F00000F00800082808D10D48006820F4604087
:10080000216940EAC1000A49086000F03FF8084940
:100810000968C1F30311074A515CC84006490860E2
:1008200006480068FFF7C0FE00204CE7003C02408D
:100830000838024014270008280100203001002059
:1008400001480068704700002801002000B5FFF74C
:10085000F7FF04490968C1F38221034A515CC8408B
:1008600000BD0000083802402427000800B5FFF74B
:10087000E7FF04490968C1F34231034A515CC840AB
:1008800000BD000008380240242700082DE9F04789
:10089000002400250026A1462548006800F00C0031
:1008A00020B1042805D008283AD105E0DFF884906B
:1008B00039E0DFF8849036E01D48001F006800F042
:1008C0003F041B48001F006800F4800078B11A48FC
:1008D0001749091F0968C1F38811A0FB017001467F
:1008E000224600233846FFF76DFC05460EE011480E
:1008F0000F49091F0968C1F38811A0FB0170014667
:10090000224600233846FFF75DFC05460848001FD5
:100910000068C0F30140401C4600B5FBF6F902E058
:10092000DFF8109000BF00BF4846BDE8F087000028
:10093000083802400024F40000127A00F8B504469A
:100940000CB90120F8BD207800F00100002874D017
:10095000F948006800F00C0004280DD0F648006843
:1009600000F00C00082813D1F348001F006800F4C1
:100970008000B0F5800F0BD1EF4808380068C0F355
:100980004040002859D06068002856D10120D9E79E
:1009900000BF6068B0F5803F08D1E74808380068BC
:1009A00040F48030E449083908601EE06068B0F522
:1009B000A02F0DD1E0480838006840F48020DE49BF
:1009C000083908600846006840F4803008600CE090
:1009D000D9480838006820F48030D74908390860C1
:1009E0000846006820F48020086000BF606890B16D
:1009F000FFF7B0FD054606E0FFF7ACFD401B64289D
:100A000001D903209EE7CC4808380068C0F3404075
:100A10000028F1D011E0FFF79DFD054606E0FFF745
:100A200099FD401B642801D903208BE7C248083890
:100A30000068C0F340400028F1D1207800F00200A7
:100A400002285FD1BC48006800F00C0058B1BA48D9
:100A5000006800F00C0008281CD1B748001F00688F
:100A600000F48000B0B9B44808380068C0F3400012
:100A700020B1E068012801D0012063E7AE480838C2
:100A8000006820F0F800216940EAC100AA4908394D
:100A9000086037E0E06800B30120A8490860FFF76C
:100AA00059FD054606E0FFF755FD401B022801D918
:100AB000032047E7A04808380068C0F3400000283A
:100AC000F1D09D480838006820F0F800216940EA1C
:100AD000C10099490839086014E00020974908606E
:100AE000FFF738FD054606E0FFF734FD401B0228FE
:100AF00001D9032026E7904808380068C0F3400079
:100B00000028F1D1207800F0080008282CD1606975
:100B1000A8B101208A490860FFF71CFD054606E0E0
:100B2000FFF718FD401B022801D903200AE782487D
:100B30006C300068C0F340000028F1D014E00020C1
:100B40007F490860FFF706FD054606E0FFF702FD56
:100B5000401B022801D90320F4E677486C30006876
:100B6000C0F340000028F1D1207800F004000428F0
:100B700070D1002770483830006800F0805090B97C
:100B800000BF002000906C483830006840F0805072
:100B90006949383108600846006800F080500090CC
:100BA00000BF00BF01276748006800F48070B0B93B
:100BB0006448006840F4807062490860FFF7CAFC2E
:100BC000054606E0FFF7C6FC401B022801D90320BA
:100BD000B8E65C48006800F480700028F2D000BFDE
:100BE000A068012808D154486830006840F001002E
:100BF0005149683108601DE0A06805280DD14E48B4
:100C00006830006840F004004B49683108600846CD
:100C1000006840F0010008600CE047486830006858
:100C200020F001004449683108600846006820F05F
:100C30000400086000BFA068A8B1FFF78BFC054660
:100C400009E0FFF787FC401B41F28831884202D956
:100C5000032077E626E0384868300068C0F340009B
:100C60000028EED013E0FFF775FC054608E0FFF71B
:100C700071FC401B41F28831884201D9032061E6B2
:100C80002D4868300068C0F340000028EFD1012FE4
:100C900007D129483830006820F080502649383183
:100CA000086000BFA069002845D02348006800F014
:100CB0000C0008285DD0A069022845D100201F49FA
:100CC0000866FFF747FC054606E0FFF743FC401BBC
:100CD000022801D9032035E6174808380068C0F318
:100CE00040600028F1D1D4E907010843616A40EA75
:100CF00081110122A06AC2EB500041EA00412C2080
:100D0000005D41EA00600C49091F086001200B49A1
:100D10000866FFF71FFC054606E0FFF71BFC401BBB
:100D2000022801D903200DE6034808380068C0F303
:100D300040600028F1D049E00838024000004742F6
:100D4000800E474200700040002021490866FFF7EE
:100D500001FC054606E0FFF7FDFB401B022801D918
:100D60000320EFE51B480068C0F340600028F2D183
:100D70002CE0A069012800D1E4E51648001D0668B2
:100D8000A069012820D006F48001E06981421BD1CE
:100D900006F03F01206A814216D147F6C07030400C
:100DA000616AB0EB811F0FD106F440310122A06AC5
:100DB000C2EB5000B1EB004F06D106F070612C2061
:100DC000005DB1EB006F01D00120BBE50020B9E56B
:100DD000000047420038024070B504462546681EB0
:100DE000B0F1807F01D301200FE0681E4FF0E021B9
:100DF00048610F214FF0FF3000F07EFB00204FF0E4
:100E0000E021886107200861002070BD10B504460C
:100E10000CB9012010BDA06900B100E000BF94F83A
:100E20003D0028B9002084F83C00204600F028F856
:100E3000242084F83D002068C06820F40050216818
:100E4000C860204600F018FA2068006920F490403D
:100E5000216808612068406920F02A002168486103
:100E60002068C06840F400502168C86000202064F9
:100E7000202084F83D0084F83E000020CAE70000EE
:100E800010B586B00446142101A8FFF7E5F9C94959
:100E90002068884238D100BF00200090C648006812
:100EA00040F40020C44908600846006800F40020AF
:100EB000009000BF00BF00BF00200090BE48103867
:100EC000006840F00100BC4910390860084600681D
:100ED00000F00100009000BF00BF0320019002203D
:100EE000029000200390032004900820059001A99F
:100EF000B248FFF725FA002211463420FFF78BFB9A
:100F00003420FFF778FB52E1AD492068884255D183
:100F100000BF00200090A848006840F48010A64957
:100F200008600846006800F48010009000BF00BF11
:100F300000BF00200090A0481038006840F0040076
:100F40009D49103908600846006800F004000090D0
:100F500000BF00BF00BF002000900846006840F0BE
:100F6000080008600846006800F00800009000BF14
:100F700000BF8814019002200290002003900320FB
:100F800004900820059001A98E48FFF7D9F90420A4
:100F9000019002200290002003900320049008207A
:100FA000059001A98848FFF7CBF9002211463520AA
:100FB000FFF731FB3520FFF71EFBF8E0834920687F
:100FC00088423BD100BF002000907B48001D006894
:100FD00040F010007849091D08600846006800F0DC
:100FE0001000009000BF00BF00BF002000907248BA
:100FF0001038006840F001006F4910390860084659
:10100000006800F00100009000BF00BF4FF4C06016
:1010100001900220029000200390032004900720FA
:10102000059001A96548FFF78BF90022114625209C
:10103000FFF7F1FA2520FFF7DEFAB8E064492068EF
:10104000884238D100BF002000905B48006840F41F
:101050000030594908600846006800F400300090EC
:1010600000BF00BF00BF0020009053481038006848
:1010700040F001005049103908600846006800F04F
:101080000100009000BF00BF0C20019002200290E0
:1010900000200390032004900720059001A94748F1
:1010A000FFF74EF9002211462620FFF7B4FA26205A
:1010B000FFF7A1FA7BE047492068884239D100BF99
:1010C000002000903C48006840F480203A490860C5
:1010D0000846006800F48020009000BF00BF00BFF9
:1010E0000020009034481038006840F00200324977
:1010F000103908600846006800F00200009000BF48
:1011000000BF4FF440600190022002900020039045
:10111000032004900720059001A92F48FFF710F93C
:10112000002211462720FFF776FA2720FFF763FAFF
:101130003DE02A492068884239D100BF0020009054
:101140001D48001D006840F020001B49091D086073
:101150000846006800F02000009000BF00BF00BFFC
:101160000020009014481038006840F00400124934
:10117000103908600846006800F00400009000BFC5
:1011800000BFC020019002200290002003900320A5
:1011900004900820059001A90A48FFF7D1F8002221
:1011A00011464720FFF737FA4720FFF724FA06B029
:1011B00010BD0000004C00404038024000000240DA
:1011C0000050004000080240000C024000100140A6
:1011D0000044004000480040000402400014014068
:1011E00000BFFEE700BFFEE770477047704710B5CD
:1011F000FFF7B6F900F0BAFE01F088F810BD000064
:101200001148006840F470000F4908600F480068FA
:1012100040F001000D49086000200C4908310860C9
:101220000A4800680A490840084908600948091D39
:101230000860081F006820F48020091F0860002053
:1012400002490C310860704788ED00E00038024028
:10125000FFFFF6FE1030002410B5024801F0BAF985
:1012600010BD00002000002010B5024801F0B2F9C6
:1012700010BD00004C0000202DE9F84F0446206806
:10128000006920F44050E168084321680861216941
:10129000A068084361690843E16908430090206839
:1012A000C06849F20C618843009908432168C8600E
:1012B0002068406920F44070A169084321684861B2
:1012C00076492068884203D075492068884203D156
:1012D000FFF7CCFA814602E0FFF7B8FA8146E069F1
:1012E000B0F5004F6CD102206168A0FB01500346AD
:1012F0001920A9FB007001462A463846FEF762FF16
:101300006421B0FBF1F04FEA001A02206168A0FBF3
:1013100001510B461920A9FB00712A463846FEF7F9
:1013200051FF834602206168A0FB0150034619204B
:10133000A9FB00712A463846FEF744FF6421B0FB42
:10134000F1F000EBC00101EB0010ABEB80003221AB
:1013500001EBC0006421B0FBF1F000F0F8000AEBF3
:10136000400A02206168A0FB015003461920A9FB36
:10137000007001462A463846FEF724FF83460220C5
:101380006168A0FB015003461920A9FB00712A46A1
:101390003846FEF717FF6421B0FBF1F000EBC00107
:1013A00001EB0010ABEB8000322101EBC0006421A7
:1013B000B0FBF1F000F007005044216888606AE05B
:1013C00004206168A0FB015003461920A9FB0070AE
:1013D00001462A463846FEF7F5FE8246042061683B
:1013E000A0FB015003461920A9FB007001462A46C4
:1013F0003846FEF7E7FE6421B0FBF1F000EBC001D8
:1014000001EB0010AAEB8000322101EB00106421F7
:10141000B0FBF1F000F0F00A04206168A0FB01705D
:1014200003461920A9FB00513A462846FEF7CAFE9A
:101430006421B0FBF1F00AEB001A04206168A0FB04
:1014400001510B461920A9FB00712A463846FEF7C8
:10145000B9FE834604206168A0FB015003461920B1
:10146000A9FB007001462A463846FEF7ABFE642110
:10147000B0FBF1F000EBC00101EB0010ABEB800022
:10148000322101EB00106421B0FBF1F000F00F00FD
:10149000504421688860BDE8F88F000000100140CA
:1014A0000014014010B5024801F094F810BD00008E
:1014B0007800002010B5024801F08CF810BD000043
:1014C000A400002010B5024801F084F810BD00000F
:1014D000D000002010B5024801F07CF810BD0000DB
:1014E000FC00002000BFFEE702480068C0F30220B5
:1014F000704700000CED00E010B5002804DB0A077F
:10150000130E054A135406E00A07140E034A00F0AE
:101510000F031B1FD45410BD00E400E018ED00E0E1
:1015200002E008C8121F08C1002AFAD170477047AC
:10153000002001E001C1121F002AFBD1704700000A
:1015400010B5002406E0054901EBC40000F0D6F810
:10155000601CC4B2002CF6D0002010BD0C2700087F
:1015600010B5044C02E020688047241D02488442E4
:10157000F9D310BDD0260008D826000810B5044CB9
:1015800002E020688047241D02488442F9D310BD40
:10159000D8260008E826000810B50024A6E0C4EB11
:1015A000C400544911F8100060B1C4EBC40001EB51
:1015B0004000808830B1C4EBC40001EB4000007BE8
:1015C000012800D190E0C4EBC4004A4901EB40007F
:1015D000407868BBC4EBC40001EB40008088002861
:1015E00025DDC4EBC40001EB4000C088401C80B284
:1015F000C4EBC4013F4A02EB4101C880C4EBC40103
:1016000002EB4101498888426DDB3B4901EBC40094
:1016100000F05DF90020C4EBC401364A02EB410141
:10162000C8800120C4EBC40102EB410148705AE0BC
:10163000C4EBC4002F4901EB40004078012852D18F
:10164000C4EBC40001EB4000C088401C80B2C4EB76
:10165000C401284A02EB4101C880C4EBC40102EB7B
:101660004101898888423EDBC4EBC400114601EB8E
:1016700040000089002825DDC4EBC40001EB4000D8
:101680004089401C80B2C4EBC40102EB4101488197
:10169000C4EBC40102EB41010989884204DB00204C
:1016A000C4EBC40102F81100C4EBC400114911F8E5
:1016B000100038B90020C4EBC4010E4A02EB41010E
:1016C000888011E00020C4EBC4010A4A02EB41010A
:1016D000C880C4EBC40102EB41014870064901EB2C
:1016E000C40000F0FCF800BF601CC4B2002C3FF442
:1016F00056AF10BD860100200C27000810B586B03B
:1017000004466249206888420FD100BF0020009043
:101710005F48006840F001005D49086008460068C5
:1017200000F00100009000BF9FE05A492068884205
:101730000FD100BF002000905548006840F0020023
:10174000534908600846006800F00200009000BF9E
:101750008BE05149206888420FD100BF00200090E3
:101760004B48006840F0040049490860084600689A
:1017700000F00400009000BF77E0484920688842EC
:101780000FD100BF002000904148006840F00800E1
:101790003F4908600846006800F00800009000BF5C
:1017A00063E03F49206888420FD100BF00200090CD
:1017B0003748006840F01000354908600846006866
:1017C00000F01000009000BF4FE0364920688842CA
:1017D0000FD100BF002000902D48006840F020008D
:1017E0002B4908600846006800F02000009000BF08
:1017F0003BE02D49206888420FD100BF00200090B7
:101800002348006840F0400021490860084600680D
:1018100000F04000009000BF27E024492068884283
:101820000FD100BF002000901948006840F08000F0
:10183000174908600846006800F08000009000BF6B
:1018400013E01B49206888420FD100BF00200090A0
:101850000F48006840F480700D4908600846006831
:1018600000F48070009000BF00BF204600F02FF809
:10187000012002900020039003200490A088019092
:1018800001A92068FEF75CFD06B010BD0000024013
:10189000303802400004024000080240000C0240C0
:1018A000001002400014024000180240001C0240D8
:1018B0000020024010B50446012C00DB10BD0123BE
:1018C0001A460521204600F013F800BFF6E710B5D0
:1018D0000446A18800222068FEF736FE10BD10B530
:1018E0000446A18801222068FEF72EFE10BD0000EC
:1018F0002DE9F04104460D4616461F46012C01DA3B
:1019000005B10EB9BDE8F081C4EBC400164901EB86
:1019100040004580C4EBC40001EB400086800020FD
:10192000C4EBC401104A02EB4101C880C4EBC400FF
:10193000114601EB400007810020C4EBC40102EB1B
:1019400041014881C4EBC40102EB41014870012010
:10195000C4EBC40102F81100044901EBC400FFF715
:10196000BEFF00BFCEE70000860100200C27000864
:1019700070B50546304800EB0514284600F0E8F93C
:1019800000283ED02079052802DA0520207152E097
:1019900020790A2803DA2079401C20714BE0A07AD4
:1019A00038B90120A07205EB4501491CC8B200F00E
:1019B0006DF9208900283EDDE088218988420DDA12
:1019C000E088401C80B2E0802189884233D105EB59
:1019D0004501C91CC8B200F059F92CE0E07A002892
:1019E00029DD207B401CC0B22073E17A884222DBD3
:1019F0000020207305EB4501491CC8B200F046F9F0
:101A000019E02079052802DD0520207110E02079F9
:101A100018B12079401E20710AE0A07A012807D170
:101A20000020A07205EB4501891CC8B200F02EF918
:101A30000020E080207370BD380100200B48807AC0
:101A40000A4AD27A904201D1002070470748807A32
:101A5000064A115C1046807A401CC0B290720A2877
:101A600001DB002090720846EFE7000078010020BB
:101A700010B586B004466149206888420FD100BF86
:101A8000002000905E48006840F001005C4908605A
:101A90000846006800F00100009000BF9FE059492F
:101AA000206888420FD100BF002000905448006891
:101AB00040F00200524908600846006800F0020049
:101AC000009000BF8BE05049206888420FD100BFD2
:101AD000002000904A48006840F00400484908602F
:101AE0000846006800F00400009000BF77E0474916
:101AF000206888420FD100BF002000904048006855
:101B000040F008003E4908600846006800F0080000
:101B1000009000BF63E03E49206888420FD100BFBB
:101B2000002000903648006840F0100034490860FA
:101B30000846006800F01000009000BF4FE03549F3
:101B4000206888420FD100BF002000902C48006818
:101B500040F020002A4908600846006800F0200094
:101B6000009000BF3BE02C49206888420FD100BFA5
:101B7000002000902248006840F0400020490860A2
:101B80000846006800F04000009000BF27E02349AD
:101B9000206888420FD100BF0020009018480068DC
:101BA00040F08000164908600846006800F0800098
:101BB000009000BF13E01A49206888420FD100BF8F
:101BC000002000900E48006840F480700C490860C6
:101BD0000846006800F48070009000BF00BF00203D
:101BE00002900120039003200490A088019001A995
:101BF0002068FEF7A5FB06B010BD00000000024003
:101C0000303802400004024000080240000C02404C
:101C1000001002400014024000180240001C024064
:101C20000020024010B5002404E02046FFF7A0FE8B
:101C3000601CC4B2042CF8DB10BD00000021114A66
:101C400091721173D172002018E064210E4A02EBE8
:101C50000012118102210C4A02EB001211710021C5
:101C6000094A02EB00129172074A02EB0012D1728C
:101C7000054A02EB00121173411CC8B20428E4DBD0
:101C80007047000078010020380100200649C97A19
:101C9000054A50541146C97A491CC9B2D1720A2961
:101CA00001DB0021D1727047780100200FB400B52C
:101CB00091B0129800904FF4E13001900021029110
:101CC000039104910C21059100210691079168462A
:101CD000FFF79CF820B140F25F210CA0FEF726FB35
:101CE0001298006820F0400012990860129800686D
:101CF00020F02000129908601298C06840F020007F
:101D00001299C86011B05DF814FB00002E2E5C2EF5
:101D10002E5C7372635C646972766572735C647264
:101D2000697665725F756172745C647269766572FA
:101D30005F756172745F6669666F2E6300000000F4
:101D40000020704700207047002070470020704737
:101D50002DE9F0410546042D17DA0026FF2700245F
:101D600008E0204600F078F810B1701CC6B2274693
:101D7000601CC4B2042CF4DB012E04D1AF4202D1AA
:101D80000120BDE8F0810020FBE70020F9E700001A
:101D900010B5FFF753FF002405E0054901EBC4002F
:101DA000FFF766FE641C042CF7D3002010BD000072
:101DB000EC26000810B5FFF741FE0446002C47D082
:101DC0000D2C43D2DFE804F042070B0F131A1E223A
:101DD000292E33383D000020FFF76CFD37E01D4809
:101DE00000F002FA33E01B4800F0F4F92FE00A2378
:101DF000052211460020FFF77BFD28E0154800F082
:101E0000FDF924E0134800F0F9F920E00323322221
:101E100011460020FFF76CFD19E00E48083000F075
:101E2000EDF914E00B48083000F0E8F90FE009483C
:101E3000103000F0E3F90AE00648103000F0DEF957
:101E400005E00448103000F0D9F900E000BF00BF01
:101E500010BD00000000002001460B4850F8310082
:101E60000069094B03EBC1039B88184008B90022A5
:101E700000E00122044800EBC1008079904201D1CA
:101E8000012070470020FCE7EC260008FEF774FBF9
:101E900000F0BCF900F032FA0C4B4FF6FF720A2149
:101EA000012000F039F80A4B4FF6FF720A21022098
:101EB00000F032F8074B4FF6FF720121032000F0CB
:101EC0002BF801E000F00AF8FCE70000251C0008F0
:101ED00099150008B51D00087047704710B500241B
:101EE00015E00C4800EB0410407870B1002009495F
:101EF00001EB04114870074800EB0410C06820B1E2
:101F0000044901EB0411C8688047601C84B2042CAA
:101F1000E7DB10BD940D002030B50446042C02DB35
:101F20006FF0090030BD00200F4D05EB041528703F
:101F30000D4D05EB041568700B4D05EB041568603D
:101F4000094800EB04108160074800EB0410428050
:101F5000054800EB0410C3600120034D05EB041598
:101F600028700020DEE70000940D002000203FE0F4
:101F7000214901EB0011097899B31F4901EB0011C8
:101F80004968491C1C4A02EB001251601A4901EBD6
:101F900000114968184A02EB00129268914226D358
:101FA0000021154A02EB001251600121124A02EB96
:101FB00000125170104901EB00114988002911DD10
:101FC0000D4901EB001149884FF6FF7291420ED086
:101FD000094901EB00114988491E074A02EB00122A
:101FE000518004E00021044A02EB00121170401CF1
:101FF0000428BDDB70470000940D002010B50024BC
:1020000005E0054901EBC40000F008F8641C032C4E
:10201000F7D3002010BD00000000002010B586B0EE
:1020200004466249206888420FD100BF002000901A
:102030005F48006840F001005D490860084600689C
:1020400000F00100009000BF9FE05A4920688842DC
:102050000FD100BF002000905548006840F00200FA
:10206000534908600846006800F00200009000BF75
:102070008BE05149206888420FD100BF00200090BA
:102080004B48006840F00400494908600846006871
:1020900000F00400009000BF77E0484920688842C3
:1020A0000FD100BF002000904148006840F00800B8
:1020B0003F4908600846006800F00800009000BF33
:1020C00063E03F49206888420FD100BF00200090A4
:1020D0003748006840F0100035490860084600683D
:1020E00000F01000009000BF4FE0364920688842A1
:1020F0000FD100BF002000902D48006840F0200064
:102100002B4908600846006800F02000009000BFDE
:102110003BE02D49206888420FD100BF002000908D
:102120002348006840F040002149086008460068E4
:1021300000F04000009000BF27E02449206888425A
:102140000FD100BF002000901948006840F08000C7
:10215000174908600846006800F08000009000BF42
:1021600013E01B49206888420FD100BF0020009077
:102170000F48006840F480700D4908600846006808
:1021800000F48070009000BF00BF0120029000208A
:10219000039002200490A088019001A92068FEF716
:1021A000CFF8204600F016F806B010BD000002403F
:1021B000303802400004024000080240000C024097
:1021C000001002400014024000180240001C0240AF
:1021D0000020024010B50446A18801222068FEF7C5
:1021E000B3F90020A07110BD10B50446A1880022EB
:1021F0002068FEF7A9F90120A07110BD10B50446B2
:10220000A1882068FEF796F910BD000000B593B0D4
:1022100000BF002001903048006840F080502E49F7
:1022200008600846006800F08050019000BF00BFC1
:1022300000BF002001902948006840F480402749F1
:1022400008600846006800F48040019000BF00BFAD
:10225000012002900004039002200890410509919A
:1022600008210A914FF4A8710B9102210C910421CD
:102270000D9102A8FEF762FB18B1952118A0FEF798
:1022800055F80F200E9002200F90002010904FF470
:10229000A05011904FF48050129005210EA8FEF727
:1022A0000DFA18B1A8210EA0FEF740F800BF0020DB
:1022B00001900948001D006840F480400649091D4E
:1022C00008600846006800F48040019000BF00BF2D
:1022D000FEF730F813B000BD4038024000700040F7
:1022E0002E2E5C2E2E5C7372635C6469727665724E
:1022F000735C626173652E630000000010B5FFF728
:102300002FF9FFF73BF9002010BD000010B5FFF7D3
:10231000E4FD0C480068401C0A4908600846006853
:10232000401C08B90020086007480078401CC0B273
:10233000054908700A2803DB00200870FFF7CCFD70
:1023400010BD0000180000201C00002000B593B054
:102350009A4B186859689A68DB68CDE90A23CDE979
:1023600008019648008AADF830009448408AADF8DC
:1023700032009248808AADF834009048C08AADF8A7
:1023800036008E48008BADF838008C48408BADF895
:102390003A008A4BD869196A5A6A9B6ACDE91123B7
:1023A000CDE90F011C220CA96846FDF73CFF08A8E7
:1023B0000FC8FFF77BFC824B18685A689968DB6886
:1023C000CDE90A13CDE908027D48008AADF8300056
:1023D0007B48408AADF832007948808AADF83400F5
:1023E0007748C08AADF836007548008BADF83800E4
:1023F0007348408BADF83A00714BDA69186A596A34
:102400009B6ACDE91113CDE90F201C220CA9684667
:10241000FDF709FF08A80FC8FFF748FC694B1A68C9
:1024200059689868DB68CDE90A03CDE90821654859
:10243000008AADF830006348408AADF83200614848
:10244000808AADF834005F48C08AADF836005D4838
:10245000008BADF838005B48408BADF83A00594B23
:10246000D9691A6A586A9B6ACDE91103CDE90F123E
:102470001C220CA96846FDF7D6FE08A80FC8FFF776
:1024800015FC514B196858689A68DB68CDE90A2336
:10249000CDE908104C48008AADF830004A48408A1F
:1024A000ADF832004848808AADF834004648C08A0A
:1024B000ADF836004448008BADF838004248408BF8
:1024C000ADF83A00404BD8691A6A596A9B6ACDE95F
:1024D0001113CDE90F021C220CA96846FDF7A3FEDB
:1024E00008A80FC8FFF7E2FB384B18685A689968CC
:1024F000DB68CDE90A13CDE908023448008AADF85B
:1025000030003248408AADF832003048808AADF859
:1025100034002E48C08AADF836002C48008BADF848
:1025200038002A48408BADF83A00284BD869196A20
:102530005A6A9B6ACDE91123CDE90F011C220CA92F
:102540006846FDF770FE08A80FC8FFF7AFFB204BE9
:102550001A6858689968DB68CDE90A13CDE9082044
:102560001B48008AADF830001948408AADF83200A7
:102570001748808AADF834001548C08AADF8360097
:102580001348008BADF838001148408BADF83A0085
:102590000F4BD869196A5A6A9B6ACDE91123CDE9B4
:1025A0000F011C220CA96846FDF73DFE08A80FC8C4
:1025B000FFF77CFB002013B000BD000020000020CE
:1025C0004C00002078000020A4000020D000002053
:1025D000FC0000202DE9F0410446206805682068D1
:1025E000C6682068D0F8148005F02000D8B12068B3
:1025F0004068C7B2E18AA0684754E08A401C80B2B4
:10260000E082E189884201DB0020E082608BE18981
:10261000884202DA608B401C6083606A10B13846E1
:10262000616A884700BF05F0800028B306F080008B
:1026300010B3A08A60B92068C06820F080002168CB
:10264000C8602068C06840F040002168C86013E09E
:10265000012084F82800618A6068405C2168486035
:10266000608A401C80B26082E189884201DB0020E0
:102670006082A08A401EA08205F0400018B306F0D8
:10268000400000B3A08A68B92068C06820F040000C
:102690002168C860206A08B1206A8047002084F859
:1026A000280010E0618A6068405C21684860608AA8
:1026B000401C80B26082E189884201DB0020608298
:1026C000A08A401EA082BDE8F08100004D1D0008D8
:1026D000451D00084D230008411D0008FD1F00088E
:1026E000911D000841150008491D00080014024012
:1026F000400000000014024080000000001402406E
:102700000001000000140240000200000018024016
:10271000800000000000000000000000010203042F
:102720000607080900000000010203044C27000806
:102730000000002038010000D0020008A82700088F
:1027400038010020A01000003015000811451002CB
:1027500040081908421014180240B202124C1440EA
:1027600094011420940212201A0102011C1A502C08
:102770001A032C0A21042C1E10014094052C0A2156
:10278000062C1A44581A072C0A21082C1A482C1A0D
:10279000092C0A210A2C1A14841A0B2C0A210C2C3D
:0827A0004B24F4B73129290094
:040000050800018965
:00000001FF
