:020000040800F2
:1000000028040020A1010008190D0008110D0008A6
:10001000150D000889020008810D0008000000008D
:100020000000000000000000000000001D0D00089E
:100030008D020008000000001B0D00081F0D0008C5
:10004000BB010008BB010008BB010008BB010008A0
:10005000BB010008BB010008BB010008BB01000890
:10006000BB010008BB010008BB010008BB01000880
:10007000BB010008BB010008BB010008BB01000870
:10008000BB010008BB010008BB010008BB01000860
:10009000BB010008BB010008BB010008BB01000850
:1000A000BB010008BB010008BB010008BB01000840
:1000B000BB010008BB010008BB010008BB01000830
:1000C000BB010008BB010008BB010008BB01000820
:1000D000BB010008BB010008BB010008BB01000810
:1000E000BB010008BB010008BB010008BB01000800
:1000F000BB010008BB010008BB010008BB010008F0
:10010000BB010008BB010008BB010008BB010008DF
:10011000BB010008BB010008BB010008BB010008CF
:10012000BB010008BB010008BB010008BB010008BF
:10013000BB010008BB010008BB010008BB010008AF
:10014000BB010008BB010008BB010008BB0100089F
:10015000BB010008BB010008BB010008BB0100088F
:10016000BB010008BB010008BB010008BB0100087F
:10017000BB010008BB010008BB0100080000000033
:10018000BB010008BB010008DFF810D000F06AF8DE
:1001900000480047250E0008AFF300802804002027
:1001A0000648804706480047FEE7FEE7FEE7FEE711
:1001B000FEE7FEE7FEE7FEE7FEE7FEE7290D0008A3
:1001C000890100082DE9F05F0546002092469B4614
:1001D00088460646814640241BE02846414647465D
:1001E000224600F02FF853465A46C01A914110D3C8
:1001F00011461846224600F016F82D1A67EB010842
:100200004F4622460120002100F00DF817EB0009AF
:100210004E41201EA4F10104DFDC484631462A4647
:100220004346BDE8F09F202A04DB203A00FA02F1A1
:10023000002070479140C2F1200320FA03F31943D4
:1002400090407047202A04DB203A21FA02F0002176
:10025000704721FA02F3D040C2F1200291400843D6
:1002600019467047064C074D06E0E06840F0010370
:1002700094E8070098471034AC42F6D3FFF788FFA4
:10028000A4110008C411000800BFFEE77047000079
:1002900070B5044600F016F906462546681C10B1F4
:1002A00004480078054400BF00F00CF9801BA84208
:1002B000FAD370BD24000020012001490860704776
:1002C00000042742F8B502460B4600250024002012
:1002D0000021D6E0012606FA01F51E6806EA0504AB
:1002E000AC4274D11E7906F00306012E04D01E79AB
:1002F00006F00306022E13D190684F000326BE407D
:10030000B0434F00DE68BE40304390605068012625
:100310008E40B0431E79C6F300168E4030435060C5
:100320001E7906F00306032E09D0D0684F0003267D
:10033000BE40B0434F009E68BE403043D0601E793F
:1003400006F00306022E13D1CF0802F1200656F85C
:1003500027004E07F70E0F26BE40B0434F07FF0E93
:100360001E69BE403043CF0802F1200646F8270040
:1003700010684F000326BE40B0431E7906F0030606
:100380004F00BE40304310605E6806F44036002ED9
:1003900076D000BF002600963C4E366846F4804674
:1003A0003A4F3E603E46366806F48046009600BFEF
:1003B00000BF374E8F0856F827008E07370F0F26DD
:1003C000BE40B043334EB24202D1002624E057E093
:1003D000314EB24201D101261EE0304EB24201D16F
:1003E000022619E02E4EB24201D1032614E02D4E12
:1003F000B24201D104260FE02B4EB24201D10526B4
:100400000AE02A4EB24201D1062605E0284EB24249
:1004100001D1072600E008268F073F0FBE4030437A
:100420001B4E8F0846F82700224E3068A0435E68B6
:1004300006F4801606B120431E4E3060361D30682B
:10044000A0435E6806F4001606B12043194E361D1F
:100450003060184E361F3068A0435E6806F40036E0
:1004600006B12043134E361F3060361F3068A0435C
:100470005E6806F4803606B120430E4E083E3060BA
:10048000491C1029FFF426AFF8BD00004438024093
:100490000838014000000240000402400008024009
:1004A000000C0240001002400014024000180240FC
:1004B000001C0240083C01400AB1816101E00B04CC
:1004C0008361704701480068704700001C000020ED
:1004D00003480068034909780844014908607047E7
:1004E0001C0000202400002010B50A48006840F4D9
:1004F0000070084908600846006840F480600860A1
:10050000032000F06FF80F2000F006F800F02AF842
:10051000002010BD003C024070B504460E48007833
:100520004FF47A71B1FBF0F00C490968B1FBF0F5BA
:10053000284600F0D3FB08B1012070BD102C07D273
:1005400000222146501E00F00EF80548046001E02C
:100550000120F2E70020F0E724000020180000202E
:100560002000002070472DE9F05F80460D461646BA
:10057000002700F007FC074639462A46334601F0BB
:100580000700C0F1070ABAF1040F02D94FF0040ABC
:1005900001E0C0F1070AD14600F1040ABAF1070FE1
:1005A00002D24FF0000A01E0A0F1030AD4464FF056
:1005B000010A0AFA09FAAAF1010A0AEA020A0AFA7F
:1005C0000CFA4FF0010B0BFA0CFBABF1010B0BEA31
:1005D000030B4AEA0B042146404600F0DBFBBDE872
:1005E000F09F000000BF00F00702064B19684FF6AD
:1005F000FF031940044B0B4343EA0221014B1960EE
:1006000000BF70470CED00E00000FA0570B504462D
:100610000D460CB9012070BD5848006800F0070075
:10062000A84209D255490D700846006800F007003D
:10063000A84201D00120EEE7207800F00200022855
:100640001DD1207800F00400042805D14C48006832
:1006500040F4E0504A490860207800F0080008287B
:1006600005D14748006840F4604045490860444867
:10067000006820F0F000A168084341490860207834
:1006800000F00100A8B36068012807D13C48083891
:100690000068C0F34040B8B90120BCE76068022898
:1006A00002D06068032807D1354808380068C0F3D5
:1006B000406048B90120AEE7314808380068C0F30F
:1006C000400008B90120A6E72D48006820F003008B
:1006D000616808432A490860FFF7F4FE064609E00E
:1006E000FFF7F0FE801B41F28831884202D90320D7
:1006F00091E707E02248006800F00C006168B0EB69
:10070000810FEDD11D48006800F00700A84209D90B
:100710001A490D700846006800F00700A84201D091
:10072000012078E7207800F00400042807D114485D
:10073000006820F4E050E16808431149086020781F
:1007400000F00800082808D10D48006820F4604037
:10075000216940EAC1000A49086000F019F8084917
:100760000968C1F30311074A515CC8400649086093
:1007700006480068FFF7D0FE00204CE7003C02402E
:10078000083802408C1100081800002020000020CA
:100790002DE9F047002400250026A14625480068E1
:1007A00000F00C0020B1042805D008283AD105E05B
:1007B000DFF8849039E0DFF8849036E01D48001FB0
:1007C000006800F03F041B48001F006800F4800030
:1007D00078B11A481749091F0968C1F38811A0FBAD
:1007E00001700146224600233846FFF7EBFC054620
:1007F0000EE011480F49091F0968C1F38811A0FBD9
:1008000001700146224600233846FFF7DBFC05460F
:100810000848001F0068C0F30140401C4600B5FBBB
:10082000F6F902E0DFF8109000BF00BF4846BDE8CF
:10083000F0870000083802400024F40000127A001B
:10084000F8B504460CB90120F8BD207800F001008D
:10085000002874D0F948006800F00C0004280DD07E
:10086000F648006800F00C00082813D1F348001F78
:10087000006800F48000B0F5800F0BD1EF48083815
:100880000068C0F34040002859D06068002856D165
:100890000120D9E700BF6068B0F5803F08D1E74884
:1008A0000838006840F48030E449083908601EE0E8
:1008B0006068B0F5A02F0DD1E0480838006840F41A
:1008C0008020DE49083908600846006840F480301E
:1008D00008600CE0D9480838006820F48030D74917
:1008E000083908600846006820F48020086000BFCE
:1008F000606890B1FFF7E6FD054606E0FFF7E2FD10
:10090000401B642801D903209EE7CC4808380068C2
:10091000C0F340400028F1D011E0FFF7D3FD0546B9
:1009200006E0FFF7CFFD401B642801D903208BE7C9
:10093000C24808380068C0F340400028F1D1207850
:1009400000F0020002285FD1BC48006800F00C00F3
:1009500058B1BA48006800F00C0008281CD1B7480C
:10096000001F006800F48000B0B9B448083800687F
:10097000C0F3400020B1E068012801D0012063E706
:10098000AE480838006820F0F800216940EAC1004C
:10099000AA490839086037E0E06800B30120A84997
:1009A0000860FFF78FFD054606E0FFF78BFD401B53
:1009B000022801D9032047E7A04808380068C0F39F
:1009C00040000028F1D09D480838006820F0F80069
:1009D000216940EAC10099490839086014E0002003
:1009E00097490860FFF76EFD054606E0FFF76AFDD0
:1009F000401B022801D9032026E7904808380068E8
:100A0000C0F340000028F1D1207800F00800082849
:100A10002CD16069A8B101208A490860FFF752FD16
:100A2000054606E0FFF74EFD401B022801D90320D2
:100A30000AE782486C300068C0F340000028F1D01B
:100A400014E000207F490860FFF73CFD054606E002
:100A5000FFF738FD401B022801D90320F4E6774850
:100A60006C300068C0F340000028F1D1207800F01D
:100A70000400042870D1002770483830006800F066
:100A8000805090B900BF002000906C48383000685A
:100A900040F080506949383108600846006800F02D
:100AA0008050009000BF00BF01276748006800F435
:100AB0008070B0B96448006840F480706249086092
:100AC000FFF700FD054606E0FFF7FCFC401B02288F
:100AD00001D90320B8E65C48006800F48070002863
:100AE000F2D000BFA068012808D1544868300068DF
:100AF00040F001005149683108601DE0A0680528F8
:100B00000DD14E486830006840F004004B49683110
:100B100008600846006840F0010008600CE04748A3
:100B20006830006820F001004449683108600846D8
:100B3000006820F00400086000BFA068A8B1FFF7BB
:100B4000C1FC054609E0FFF7BDFC401B41F28831BE
:100B5000884202D9032077E626E0384868300068EA
:100B6000C0F340000028EED013E0FFF7ABFC0546D1
:100B700008E0FFF7A7FC401B41F28831884201D909
:100B8000032061E62D4868300068C0F3400000286B
:100B9000EFD1012F07D129483830006820F080506C
:100BA00026493831086000BFA069002845D0234895
:100BB000006800F00C0008285DD0A069022845D12B
:100BC00000201F490866FFF77DFC054606E0FFF799
:100BD00079FC401B022801D9032035E61748083864
:100BE0000068C0F340600028F1D1D4E90701084350
:100BF000616A40EA81110122A06AC2EB500041EA19
:100C000000412C20005D41EA00600C49091F08608A
:100C100001200B490866FFF755FC054606E0FFF783
:100C200051FC401B022801D903200DE60348083877
:100C30000068C0F340600028F1D049E00838024065
:100C400000004742800E47420070004000202149CA
:100C50000866FFF737FC054606E0FFF733FC401B4C
:100C6000022801D90320EFE51B480068C0F340606B
:100C70000028F2D12CE0A069012800D1E4E5164853
:100C8000001D0668A069012820D006F48001E069F3
:100C900081421BD106F03F01206A814216D147F6FE
:100CA000C0703040616AB0EB811F0FD106F4403153
:100CB0000122A06AC2EB5000B1EB004F06D106F052
:100CC00070612C20005DB1EB006F01D00120BBE50D
:100CD0000020B9E5000047420038024070B50446E4
:100CE0002546681EB0F1807F01D301200FE0681E09
:100CF0004FF0E02148610F214FF0FF3000F04AF83B
:100D000000204FF0E021886107200861002070BDBD
:100D100000BFFEE700BFFEE770477047704710B5A1
:100D2000FFF7D6FB10BD00001148006840F47000CA
:100D30000F4908600F48006840F001000D49086045
:100D400000200C49083108600A4800680A49084038
:100D5000084908600948091D0860081F006820F458
:100D60008020091F0860002002490C31086070478C
:100D700088ED00E000380240FFFFF6FE103000244E
:100D800000BFFEE702480068C0F302207047000081
:100D90000CED00E010B5002804DB0A07130E054A2D
:100DA000135406E00A07140E034A00F00F031B1F3A
:100DB000D45410BD00E400E018ED00E002E008C8E3
:100DC000121F08C1002AFAD170477047002001E0C5
:100DD00001C1121F002AFBD17047000010B5044C5E
:100DE00002E020688047241D02488442F9D310BDE8
:100DF0007C1100088411000810B5044C02E0206842
:100E00008047241D02488442F9D310BD8411000894
:100E100088110008002070470020704700207047AC
:100E200000207047FFF760FB00F03EF900F09CF9EE
:100E300019E04FF47A70FFF72BFA002000F024F944
:100E4000012000F011F9022000F01EF94FF47A7031
:100E5000FFF71EFA002000F007F9012000F014F956
:100E6000022000F001F9E4E710B5002403E0E0B24D
:100E700000F006F8641C032CF9DB002010BD000014
:100E800010B586B004466D4850F834006C4988426D
:100E90000FD100BF002000906A48006840F00100B8
:100EA000684908600846006800F00100009000BF33
:100EB000AFE0624850F83400634988420FD100BF68
:100EC000002000905F48006840F002005D49086023
:100ED0000846006800F00200009000BF99E0574803
:100EE00050F83400594988420FD100BF00200090CB
:100EF0005448006840F00400524908600846006801
:100F000000F00400009000BF83E04C4850F834002B
:100F10004F4988420FD100BF002000904948006827
:100F200040F00800474908600846006800F00800E3
:100F3000009000BF6DE0414850F8340045498842B8
:100F40000FD100BF002000903E48006840F0100024
:100F50003C4908600846006800F01000009000BF9F
:100F600057E0364850F834003B4988420FD100BF63
:100F7000002000903348006840F0200031490860AC
:100F80000846006800F02000009000BF41E02B48B8
:100F900050F83400314988420FD100BF0020009042
:100FA0002848006840F0400026490860084600686C
:100FB00000F04000009000BF2BE0204850F83400C3
:100FC000274988420FD100BF002000901D480068CB
:100FD00040F080001B4908600846006800F080006F
:100FE000009000BF15E0154850F834001D498842B4
:100FF0000FD100BF002000901248006840F48070BC
:10100000104908600846006800F48070009000BF36
:1010100000BF01200290002003900490074800EBDD
:10102000C40080880190054951F8340001A9FFF7F8
:1010300049F9204600F018F806B010BD0000002065
:101040000000024030380240000402400008024024
:10105000000C024000100240001402400018024040
:10106000001C02400020024010B50446054A02EB75
:10107000C4029188034A52F834000122FFF71CFA97
:10108000002010BD0000002010B50446054A02EB08
:10109000C4029188034A52F834000022FFF70CFA88
:1010A000012010BD0000002000B593B000BF00205B
:1010B00001902B48006840F080502949086008469C
:1010C000006800F08050019000BF00BF00BF00200A
:1010D00001902448006840F4804022490860084696
:1010E000006800F48040019000BF00BF0120029022
:1010F00000040390022008904105099108210A91FB
:101100004FF4A8710B9102210C9104210D9102A8BA
:10111000FFF796FB0F200E9002200F9000201090FA
:101120004FF4A05011904FF48050129005210EA85A
:10113000FFF76CFA00BF002001900948001D00680D
:1011400040F480400649091D08600846006800F424
:101150008040019000BF00BFFFF7AEF813B000BDA4
:10116000403802400070004010B5FFF737FEFFF72F
:1011700043FE002010BD0000210E0008190E0008DB
:10118000690E0008150E00081D0E00080000000082
:101190000000000001020304060708090000000027
:1011A00001020304C4110008000000202800000010
:1011B000BC0D0008EC11000828000020000400000D
:1011C000CC0D000800100240080000000010024092
:1011D0001000000000180240000200000024F4008B
:0C11E000000000001000000001000000F2
:040000050800018965
:00000001FF
